{
  "contractName": "drug",
  "abi": [
    {
      "inputs": [
        {
          "internalType": "address",
          "name": "labmanu",
          "type": "address"
        },
        {
          "internalType": "string",
          "name": "labform",
          "type": "string"
        }
      ],
      "name": "addLabManufacturer",
      "outputs": [],
      "stateMutability": "nonpayable",
      "type": "function"
    },
    {
      "inputs": [],
      "name": "viewLabManufacturers",
      "outputs": [
        {
          "internalType": "address[]",
          "name": "",
          "type": "address[]"
        },
        {
          "internalType": "string[]",
          "name": "",
          "type": "string[]"
        }
      ],
      "stateMutability": "view",
      "type": "function",
      "constant": true
    },
    {
      "inputs": [
        {
          "internalType": "uint256",
          "name": "labform",
          "type": "uint256"
        },
        {
          "internalType": "string",
          "name": "feed",
          "type": "string"
        }
      ],
      "name": "addLabFeedback",
      "outputs": [],
      "stateMutability": "nonpayable",
      "type": "function"
    },
    {
      "inputs": [],
      "name": "viewLabFeedback",
      "outputs": [
        {
          "internalType": "string[][]",
          "name": "",
          "type": "string[][]"
        }
      ],
      "stateMutability": "view",
      "type": "function",
      "constant": true
    }
  ],
  "bytecode": "0x608060405234801561001057600080fd5b50610dcf806100206000396000f3fe608060405234801561001057600080fd5b506004361061004c5760003560e01c80632decedb51461005157806345a1917e1461006d578063bc88b17b14610089578063c1efe661146100a8575b600080fd5b61006b600480360381019061006691906107f7565b6100c6565b005b610087600480360381019061008291906108b1565b610122565b005b610091610276565b60405161009f929190610b15565b60405180910390f35b6100b06103e0565b6040516100bd9190610c94565b60405180910390f35b600282815481106100da576100d9610cb6565b5b906000526020600020018190806001815401808255809150506001900390600052602060002001600090919091909150908051906020019061011d929190610500565b505050565b60016003826040516101349190610d21565b908152602001604051809103902060006101000a81548160ff0219169083151502179055506000829080600181540180825580915050600190039060005260206000200160009091909190916101000a81548173ffffffffffffffffffffffffffffffffffffffff021916908373ffffffffffffffffffffffffffffffffffffffff1602179055506001819080600181540180825580915050600190039060005260206000200160009091909190915090805190602001906101f7929190610500565b50600260405180602001604052806040518060400160405280600881526020017f4e696365204a6f6200000000000000000000000000000000000000000000000081525081525090806001815401808255809150506001900390600052602060002001600090919091909150906001610271929190610586565b505050565b60608060006001818054806020026020016040519081016040528092919081815260200182805480156102fe57602002820191906000526020600020905b8160009054906101000a900473ffffffffffffffffffffffffffffffffffffffff1673ffffffffffffffffffffffffffffffffffffffff16815260200190600101908083116102b4575b5050505050915080805480602002602001604051908101604052809291908181526020016000905b828210156103d257838290600052602060002001805461034590610d67565b80601f016020809104026020016040519081016040528092919081815260200182805461037190610d67565b80156103be5780601f10610393576101008083540402835291602001916103be565b820191906000526020600020905b8154815290600101906020018083116103a157829003601f168201915b505050505081526020019060010190610326565b505050509050915091509091565b60606002805480602002602001604051908101604052809291908181526020016000905b828210156104f757838290600052602060002001805480602002602001604051908101604052809291908181526020016000905b828210156104e457838290600052602060002001805461045790610d67565b80601f016020809104026020016040519081016040528092919081815260200182805461048390610d67565b80156104d05780601f106104a5576101008083540402835291602001916104d0565b820191906000526020600020905b8154815290600101906020018083116104b357829003601f168201915b505050505081526020019060010190610438565b5050505081526020019060010190610404565b50505050905090565b82805461050c90610d67565b90600052602060002090601f01602090048101928261052e5760008555610575565b82601f1061054757805160ff1916838001178555610575565b82800160010185558215610575579182015b82811115610574578251825591602001919060010190610559565b5b50905061058291906105e6565b5090565b8280548282559060005260206000209081019282156105d5579160200282015b828111156105d45782518290805190602001906105c4929190610500565b50916020019190600101906105a6565b5b5090506105e29190610603565b5090565b5b808211156105ff5760008160009055506001016105e7565b5090565b5b80821115610623576000818161061a9190610627565b50600101610604565b5090565b50805461063390610d67565b6000825580601f106106455750610664565b601f01602090049060005260206000209081019061066391906105e6565b5b50565b6000604051905090565b600080fd5b600080fd5b6000819050919050565b61068e8161067b565b811461069957600080fd5b50565b6000813590506106ab81610685565b92915050565b600080fd5b600080fd5b6000601f19601f8301169050919050565b7f4e487b7100000000000000000000000000000000000000000000000000000000600052604160045260246000fd5b610704826106bb565b810181811067ffffffffffffffff82111715610723576107226106cc565b5b80604052505050565b6000610736610667565b905061074282826106fb565b919050565b600067ffffffffffffffff821115610762576107616106cc565b5b61076b826106bb565b9050602081019050919050565b82818337600083830152505050565b600061079a61079584610747565b61072c565b9050828152602081018484840111156107b6576107b56106b6565b5b6107c1848285610778565b509392505050565b600082601f8301126107de576107dd6106b1565b5b81356107ee848260208601610787565b91505092915050565b6000806040838503121561080e5761080d610671565b5b600061081c8582860161069c565b925050602083013567ffffffffffffffff81111561083d5761083c610676565b5b610849858286016107c9565b9150509250929050565b600073ffffffffffffffffffffffffffffffffffffffff82169050919050565b600061087e82610853565b9050919050565b61088e81610873565b811461089957600080fd5b50565b6000813590506108ab81610885565b92915050565b600080604083850312156108c8576108c7610671565b5b60006108d68582860161089c565b925050602083013567ffffffffffffffff8111156108f7576108f6610676565b5b610903858286016107c9565b9150509250929050565b600081519050919050565b600082825260208201905092915050565b6000819050602082019050919050565b61094281610873565b82525050565b60006109548383610939565b60208301905092915050565b6000602082019050919050565b60006109788261090d565b6109828185610918565b935061098d83610929565b8060005b838110156109be5781516109a58882610948565b97506109b083610960565b925050600181019050610991565b5085935050505092915050565b600081519050919050565b600082825260208201905092915050565b6000819050602082019050919050565b600081519050919050565b600082825260208201905092915050565b60005b83811015610a31578082015181840152602081019050610a16565b83811115610a40576000848401525b50505050565b6000610a51826109f7565b610a5b8185610a02565b9350610a6b818560208601610a13565b610a74816106bb565b840191505092915050565b6000610a8b8383610a46565b905092915050565b6000602082019050919050565b6000610aab826109cb565b610ab581856109d6565b935083602082028501610ac7856109e7565b8060005b85811015610b035784840389528151610ae48582610a7f565b9450610aef83610a93565b925060208a01995050600181019050610acb565b50829750879550505050505092915050565b60006040820190508181036000830152610b2f818561096d565b90508181036020830152610b438184610aa0565b90509392505050565b600081519050919050565b600082825260208201905092915050565b6000819050602082019050919050565b600082825260208201905092915050565b6000610b94826109cb565b610b9e8185610b78565b935083602082028501610bb0856109e7565b8060005b85811015610bec5784840389528151610bcd8582610a7f565b9450610bd883610a93565b925060208a01995050600181019050610bb4565b50829750879550505050505092915050565b6000610c0a8383610b89565b905092915050565b6000602082019050919050565b6000610c2a82610b4c565b610c348185610b57565b935083602082028501610c4685610b68565b8060005b85811015610c825784840389528151610c638582610bfe565b9450610c6e83610c12565b925060208a01995050600181019050610c4a565b50829750879550505050505092915050565b60006020820190508181036000830152610cae8184610c1f565b905092915050565b7f4e487b7100000000000000000000000000000000000000000000000000000000600052603260045260246000fd5b600081905092915050565b6000610cfb826109f7565b610d058185610ce5565b9350610d15818560208601610a13565b80840191505092915050565b6000610d2d8284610cf0565b915081905092915050565b7f4e487b7100000000000000000000000000000000000000000000000000000000600052602260045260246000fd5b60006002820490506001821680610d7f57607f821691505b60208210811415610d9357610d92610d38565b5b5091905056fea2646970667358221220ac7c365d7949ab48afe47b05f6810d370fa15c152643668eefdb4279c730615f64736f6c634300080c0033",
  "immutableReferences": {},
  "source": "// SPDX-License-Identifier: MIT\npragma solidity >=0.4.22 <0.9.0;\n\ncontract drug {\n  \n  address[] _labmanu;\n  string[] _labform;\n  string[][] _labfeeds;\n\n  mapping(string=>bool) labmanus;\n\n  function addLabManufacturer(address labmanu,string memory labform) public {\n\n    labmanus[labform]=true;\n    _labmanu.push(labmanu);\n    _labform.push(labform);\n    _labfeeds.push([\"Nice Job\"]);\n  }\n\n  function viewLabManufacturers() public view returns(address[] memory,string[] memory) {\n    return (_labmanu,_labform);\n  }\n\n  function addLabFeedback(uint labform,string memory feed) public {  \n    _labfeeds[labform].push(feed);          \n  }\n\n  function viewLabFeedback() public view returns(string[][] memory) {\n    return (_labfeeds);\n  }\n}\n",
  "sourcePath": "C:\\Users\\Madhu\\Desktop\\drug-traceability-blockchain\\contracts\\drug.sol",
  "compiler": {
    "name": "solc",
    "version": "0.8.12+commit.f00d7308.Emscripten.clang"
  },
  "schemaVersion": "3.4.7",
  "updatedAt": "2022-05-18T18:22:08.892Z",
  "networkType": "ethereum",
  "devdoc": {
    "kind": "dev",
    "methods": {},
    "version": 1
  },
  "userdoc": {
    "kind": "user",
    "methods": {},
    "version": 1
  }
}