{
  "contractName": "drug",
  "abi": [
    {
      "inputs": [
        {
          "internalType": "address",
          "name": "lotmanu",
          "type": "address"
        },
        {
          "internalType": "uint256",
          "name": "lotid",
          "type": "uint256"
        },
        {
          "internalType": "uint256",
          "name": "lotpillcount",
          "type": "uint256"
        },
        {
          "internalType": "string",
          "name": "lotlabform",
          "type": "string"
        }
      ],
      "name": "createLot",
      "outputs": [],
      "stateMutability": "nonpayable",
      "type": "function"
    },
    {
      "inputs": [],
      "name": "viewLots",
      "outputs": [
        {
          "internalType": "address[]",
          "name": "",
          "type": "address[]"
        },
        {
          "internalType": "uint256[]",
          "name": "",
          "type": "uint256[]"
        },
        {
          "internalType": "uint256[]",
          "name": "",
          "type": "uint256[]"
        },
        {
          "internalType": "string[]",
          "name": "",
          "type": "string[]"
        },
        {
          "internalType": "uint256[]",
          "name": "",
          "type": "uint256[]"
        }
      ],
      "stateMutability": "view",
      "type": "function",
      "constant": true
    },
    {
      "inputs": [
        {
          "internalType": "address",
          "name": "lotmanu",
          "type": "address"
        },
        {
          "internalType": "uint256",
          "name": "lotid",
          "type": "uint256"
        },
        {
          "internalType": "address",
          "name": "lotwarehouse",
          "type": "address"
        }
      ],
      "name": "allocateLotWareM",
      "outputs": [],
      "stateMutability": "nonpayable",
      "type": "function"
    },
    {
      "inputs": [],
      "name": "viewLotWareM",
      "outputs": [
        {
          "internalType": "address[]",
          "name": "",
          "type": "address[]"
        },
        {
          "internalType": "address[]",
          "name": "",
          "type": "address[]"
        },
        {
          "internalType": "uint256[]",
          "name": "",
          "type": "uint256[]"
        }
      ],
      "stateMutability": "view",
      "type": "function",
      "constant": true
    },
    {
      "inputs": [
        {
          "internalType": "address",
          "name": "lab",
          "type": "address"
        },
        {
          "internalType": "address",
          "name": "labmanu",
          "type": "address"
        },
        {
          "internalType": "string",
          "name": "labform",
          "type": "string"
        }
      ],
      "name": "addLabManufacturer",
      "outputs": [],
      "stateMutability": "nonpayable",
      "type": "function"
    },
    {
      "inputs": [],
      "name": "viewLabManufacturers",
      "outputs": [
        {
          "internalType": "address[]",
          "name": "",
          "type": "address[]"
        },
        {
          "internalType": "address[]",
          "name": "",
          "type": "address[]"
        },
        {
          "internalType": "string[]",
          "name": "",
          "type": "string[]"
        }
      ],
      "stateMutability": "view",
      "type": "function",
      "constant": true
    },
    {
      "inputs": [
        {
          "internalType": "uint256",
          "name": "labform",
          "type": "uint256"
        },
        {
          "internalType": "string",
          "name": "feed",
          "type": "string"
        }
      ],
      "name": "addLabFeedback",
      "outputs": [],
      "stateMutability": "nonpayable",
      "type": "function"
    },
    {
      "inputs": [],
      "name": "viewLabFeedback",
      "outputs": [
        {
          "internalType": "string[][]",
          "name": "",
          "type": "string[][]"
        }
      ],
      "stateMutability": "view",
      "type": "function",
      "constant": true
    }
  ],
  "bytecode": "0x608060405234801561001057600080fd5b506118df806100206000396000f3fe608060405234801561001057600080fd5b50600436106100885760003560e01c8063bc88b17b1161005b578063bc88b17b14610107578063c1efe66114610127578063e769216a14610145578063ede166b51461016157610088565b8063071ab2431461008d5780632decedb5146100ad57806334f18393146100c95780635a24a396146100e5575b600080fd5b61009561017d565b6040516100a493929190611039565b60405180910390f35b6100c760048036038101906100c2919061120b565b6102f5565b005b6100e360048036038101906100de9190611293565b610351565b005b6100ed610472565b6040516100fe959493929190611460565b60405180910390f35b61010f6106e6565b60405161011e939291906114d6565b60405180910390f35b61012f6108df565b60405161013c919061166a565b60405180910390f35b61015f600480360381019061015a919061168c565b6109ff565b005b61017b600480360381019061017691906116fb565b610bb7565b005b60608060606006600460058280548060200260200160405190810160405280929190818152602001828054801561020957602002820191906000526020600020905b8160009054906101000a900473ffffffffffffffffffffffffffffffffffffffff1673ffffffffffffffffffffffffffffffffffffffff16815260200190600101908083116101bf575b505050505092508180548060200260200160405190810160405280929190818152602001828054801561029157602002820191906000526020600020905b8160009054906101000a900473ffffffffffffffffffffffffffffffffffffffff1673ffffffffffffffffffffffffffffffffffffffff1681526020019060010190808311610247575b50505050509150808054806020026020016040519081016040528092919081815260200182805480156102e357602002820191906000526020600020905b8154815260200190600101908083116102cf575b50505050509050925092509250909192565b600382815481106103095761030861174e565b5b906000526020600020018190806001815401808255809150506001900390600052602060002001600090919091909150908051906020019061034c929190610d1a565b505050565b6007849080600181540180825580915050600190039060005260206000200160009091909190916101000a81548173ffffffffffffffffffffffffffffffffffffffff021916908373ffffffffffffffffffffffffffffffffffffffff16021790555060088390806001815401808255809150506001900390600052602060002001600090919091909150556009829080600181540180825580915050600190039060005260206000200160009091909190915055600a81908060018154018082558091505060019003906000526020600020016000909190919091509080519060200190610441929190610d1a565b50600b6001908060018154018082558091505060019003906000526020600020016000909190919091505550505050565b6060806060806060600760086009600a600b8480548060200260200160405190810160405280929190818152602001828054801561050557602002820191906000526020600020905b8160009054906101000a900473ffffffffffffffffffffffffffffffffffffffff1673ffffffffffffffffffffffffffffffffffffffff16815260200190600101908083116104bb575b505050505094508380548060200260200160405190810160405280929190818152602001828054801561055757602002820191906000526020600020905b815481526020019060010190808311610543575b50505050509350828054806020026020016040519081016040528092919081815260200182805480156105a957602002820191906000526020600020905b815481526020019060010190808311610595575b5050505050925081805480602002602001604051908101604052809291908181526020016000905b8282101561067d5783829060005260206000200180546105f0906117ac565b80601f016020809104026020016040519081016040528092919081815260200182805461061c906117ac565b80156106695780601f1061063e57610100808354040283529160200191610669565b820191906000526020600020905b81548152906001019060200180831161064c57829003601f168201915b5050505050815260200190600101906105d1565b505050509150808054806020026020016040519081016040528092919081815260200182805480156106ce57602002820191906000526020600020905b8154815260200190600101908083116106ba575b50505050509050945094509450945094509091929394565b60608060606000600160028280548060200260200160405190810160405280929190818152602001828054801561077257602002820191906000526020600020905b8160009054906101000a900473ffffffffffffffffffffffffffffffffffffffff1673ffffffffffffffffffffffffffffffffffffffff1681526020019060010190808311610728575b50505050509250818054806020026020016040519081016040528092919081815260200182805480156107fa57602002820191906000526020600020905b8160009054906101000a900473ffffffffffffffffffffffffffffffffffffffff1673ffffffffffffffffffffffffffffffffffffffff16815260200190600101908083116107b0575b5050505050915080805480602002602001604051908101604052809291908181526020016000905b828210156108ce578382906000526020600020018054610841906117ac565b80601f016020809104026020016040519081016040528092919081815260200182805461086d906117ac565b80156108ba5780601f1061088f576101008083540402835291602001916108ba565b820191906000526020600020905b81548152906001019060200180831161089d57829003601f168201915b505050505081526020019060010190610822565b505050509050925092509250909192565b60606003805480602002602001604051908101604052809291908181526020016000905b828210156109f657838290600052602060002001805480602002602001604051908101604052809291908181526020016000905b828210156109e3578382906000526020600020018054610956906117ac565b80601f0160208091040260200160405190810160405280929190818152602001828054610982906117ac565b80156109cf5780601f106109a4576101008083540402835291602001916109cf565b820191906000526020600020905b8154815290600101906020018083116109b257829003601f168201915b505050505081526020019060010190610937565b5050505081526020019060010190610903565b50505050905090565b6000839080600181540180825580915050600190039060005260206000200160009091909190916101000a81548173ffffffffffffffffffffffffffffffffffffffff021916908373ffffffffffffffffffffffffffffffffffffffff1602179055506001600c82604051610a74919061181a565b908152602001604051809103902060006101000a81548160ff0219169083151502179055506001829080600181540180825580915050600190039060005260206000200160009091909190916101000a81548173ffffffffffffffffffffffffffffffffffffffff021916908373ffffffffffffffffffffffffffffffffffffffff160217905550600281908060018154018082558091505060019003906000526020600020016000909190919091509080519060200190610b37929190610d1a565b50600360405180602001604052806040518060400160405280600881526020017f4e696365204a6f6200000000000000000000000000000000000000000000000081525081525090806001815401808255809150506001900390600052602060002001600090919091909150906001610bb1929190610da0565b50505050565b60005b600880549050811015610c25578260088281548110610bdc57610bdb61174e565b5b90600052602060002001541415610c12576000600b8281548110610c0357610c0261174e565b5b90600052602060002001819055505b8080610c1d90611860565b915050610bba565b6006849080600181540180825580915050600190039060005260206000200160009091909190916101000a81548173ffffffffffffffffffffffffffffffffffffffff021916908373ffffffffffffffffffffffffffffffffffffffff1602179055506004829080600181540180825580915050600190039060005260206000200160009091909190916101000a81548173ffffffffffffffffffffffffffffffffffffffff021916908373ffffffffffffffffffffffffffffffffffffffff160217905550600583908060018154018082558091505060019003906000526020600020016000909190919091505550505050565b828054610d26906117ac565b90600052602060002090601f016020900481019282610d485760008555610d8f565b82601f10610d6157805160ff1916838001178555610d8f565b82800160010185558215610d8f579182015b82811115610d8e578251825591602001919060010190610d73565b5b509050610d9c9190610e00565b5090565b828054828255906000526020600020908101928215610def579160200282015b82811115610dee578251829080519060200190610dde929190610d1a565b5091602001919060010190610dc0565b5b509050610dfc9190610e1d565b5090565b5b80821115610e19576000816000905550600101610e01565b5090565b5b80821115610e3d5760008181610e349190610e41565b50600101610e1e565b5090565b508054610e4d906117ac565b6000825580601f10610e5f5750610e7e565b601f016020900490600052602060002090810190610e7d9190610e00565b5b50565b600081519050919050565b600082825260208201905092915050565b6000819050602082019050919050565b600073ffffffffffffffffffffffffffffffffffffffff82169050919050565b6000610ed882610ead565b9050919050565b610ee881610ecd565b82525050565b6000610efa8383610edf565b60208301905092915050565b6000602082019050919050565b6000610f1e82610e81565b610f288185610e8c565b9350610f3383610e9d565b8060005b83811015610f64578151610f4b8882610eee565b9750610f5683610f06565b925050600181019050610f37565b5085935050505092915050565b600081519050919050565b600082825260208201905092915050565b6000819050602082019050919050565b6000819050919050565b610fb081610f9d565b82525050565b6000610fc28383610fa7565b60208301905092915050565b6000602082019050919050565b6000610fe682610f71565b610ff08185610f7c565b9350610ffb83610f8d565b8060005b8381101561102c5781516110138882610fb6565b975061101e83610fce565b925050600181019050610fff565b5085935050505092915050565b600060608201905081810360008301526110538186610f13565b905081810360208301526110678185610f13565b9050818103604083015261107b8184610fdb565b9050949350505050565b6000604051905090565b600080fd5b600080fd5b6110a281610f9d565b81146110ad57600080fd5b50565b6000813590506110bf81611099565b92915050565b600080fd5b600080fd5b6000601f19601f8301169050919050565b7f4e487b7100000000000000000000000000000000000000000000000000000000600052604160045260246000fd5b611118826110cf565b810181811067ffffffffffffffff82111715611137576111366110e0565b5b80604052505050565b600061114a611085565b9050611156828261110f565b919050565b600067ffffffffffffffff821115611176576111756110e0565b5b61117f826110cf565b9050602081019050919050565b82818337600083830152505050565b60006111ae6111a98461115b565b611140565b9050828152602081018484840111156111ca576111c96110ca565b5b6111d584828561118c565b509392505050565b600082601f8301126111f2576111f16110c5565b5b813561120284826020860161119b565b91505092915050565b600080604083850312156112225761122161108f565b5b6000611230858286016110b0565b925050602083013567ffffffffffffffff81111561125157611250611094565b5b61125d858286016111dd565b9150509250929050565b61127081610ecd565b811461127b57600080fd5b50565b60008135905061128d81611267565b92915050565b600080600080608085870312156112ad576112ac61108f565b5b60006112bb8782880161127e565b94505060206112cc878288016110b0565b93505060406112dd878288016110b0565b925050606085013567ffffffffffffffff8111156112fe576112fd611094565b5b61130a878288016111dd565b91505092959194509250565b600081519050919050565b600082825260208201905092915050565b6000819050602082019050919050565b600081519050919050565b600082825260208201905092915050565b60005b8381101561137c578082015181840152602081019050611361565b8381111561138b576000848401525b50505050565b600061139c82611342565b6113a6818561134d565b93506113b681856020860161135e565b6113bf816110cf565b840191505092915050565b60006113d68383611391565b905092915050565b6000602082019050919050565b60006113f682611316565b6114008185611321565b93508360208202850161141285611332565b8060005b8581101561144e578484038952815161142f85826113ca565b945061143a836113de565b925060208a01995050600181019050611416565b50829750879550505050505092915050565b600060a082019050818103600083015261147a8188610f13565b9050818103602083015261148e8187610fdb565b905081810360408301526114a28186610fdb565b905081810360608301526114b681856113eb565b905081810360808301526114ca8184610fdb565b90509695505050505050565b600060608201905081810360008301526114f08186610f13565b905081810360208301526115048185610f13565b9050818103604083015261151881846113eb565b9050949350505050565b600081519050919050565b600082825260208201905092915050565b6000819050602082019050919050565b600082825260208201905092915050565b600061156a82611316565b611574818561154e565b93508360208202850161158685611332565b8060005b858110156115c257848403895281516115a385826113ca565b94506115ae836113de565b925060208a0199505060018101905061158a565b50829750879550505050505092915050565b60006115e0838361155f565b905092915050565b6000602082019050919050565b600061160082611522565b61160a818561152d565b93508360208202850161161c8561153e565b8060005b85811015611658578484038952815161163985826115d4565b9450611644836115e8565b925060208a01995050600181019050611620565b50829750879550505050505092915050565b6000602082019050818103600083015261168481846115f5565b905092915050565b6000806000606084860312156116a5576116a461108f565b5b60006116b38682870161127e565b93505060206116c48682870161127e565b925050604084013567ffffffffffffffff8111156116e5576116e4611094565b5b6116f1868287016111dd565b9150509250925092565b6000806000606084860312156117145761171361108f565b5b60006117228682870161127e565b9350506020611733868287016110b0565b92505060406117448682870161127e565b9150509250925092565b7f4e487b7100000000000000000000000000000000000000000000000000000000600052603260045260246000fd5b7f4e487b7100000000000000000000000000000000000000000000000000000000600052602260045260246000fd5b600060028204905060018216806117c457607f821691505b602082108114156117d8576117d761177d565b5b50919050565b600081905092915050565b60006117f482611342565b6117fe81856117de565b935061180e81856020860161135e565b80840191505092915050565b600061182682846117e9565b915081905092915050565b7f4e487b7100000000000000000000000000000000000000000000000000000000600052601160045260246000fd5b600061186b82610f9d565b91507fffffffffffffffffffffffffffffffffffffffffffffffffffffffffffffffff82141561189e5761189d611831565b5b60018201905091905056fea2646970667358221220f74ae0c1ba2b0aef0f06bb3742c1e06826c76d2337f5be5fcd9547b51a2c343c64736f6c634300080c0033",
  "immutableReferences": {},
  "source": "// SPDX-License-Identifier: MIT\npragma solidity >=0.4.22 <0.9.0;\n\ncontract drug {\n  address[] _lab;\n  address[] _labmanu;\n  string[] _labform;\n  string[][] _labfeeds;\n\n  address[] _lotwarehousem;\n  uint[] _lotidwarehousem;\n  address[] _lotmanuwarehousem;\n\n  address[] _lotmanu;\n  uint[] _lotid;\n  uint[] _lotpillcount;\n  string[] _lotlabform;\n  uint[] _lotstatus;\n\n  mapping(string=>bool) labmanus;\n\n  function createLot(address lotmanu,uint lotid,uint lotpillcount,string memory lotlabform) public {\n\n    _lotmanu.push(lotmanu);\n    _lotid.push(lotid);\n    _lotpillcount.push(lotpillcount);\n    _lotlabform.push(lotlabform);\n    _lotstatus.push(1);\n\n  }\n\n  function viewLots() public view returns(address[] memory, uint[] memory,uint[] memory,string[] memory,uint[] memory) {\n\n    return(_lotmanu,_lotid,_lotpillcount,_lotlabform,_lotstatus);\n  }\n\n  function allocateLotWareM(address lotmanu,uint lotid, address lotwarehouse) public {\n   uint i;\n   \n   for(i=0;i<_lotid.length;i++) {\n     if(_lotid[i]==lotid) {\n       _lotstatus[i]=0;\n     }\n   }\n\n   _lotmanuwarehousem.push(lotmanu);\n   _lotwarehousem.push(lotwarehouse);\n   _lotidwarehousem.push(lotid); \n\n  }\n\n  function viewLotWareM() public view returns (address[] memory,address[] memory, uint[] memory) {\n    return (_lotmanuwarehousem,_lotwarehousem,_lotidwarehousem);\n  }\n\n  function addLabManufacturer(address lab,address labmanu,string memory labform) public {\n\n    _lab.push(lab);\n    labmanus[labform]=true;\n    _labmanu.push(labmanu);\n    _labform.push(labform);\n    _labfeeds.push([\"Nice Job\"]);\n  }\n\n  function viewLabManufacturers() public view returns(address[] memory,address[] memory,string[] memory) {\n    return (_lab,_labmanu,_labform);\n  }\n\n  function addLabFeedback(uint labform,string memory feed) public {  \n    _labfeeds[labform].push(feed);          \n  }\n\n  function viewLabFeedback() public view returns(string[][] memory) {\n    return (_labfeeds);\n  }\n}\n",
  "sourcePath": "C:\\Users\\Madhu\\Desktop\\drug-traceability-blockchain\\contracts\\drug.sol",
  "compiler": {
    "name": "solc",
    "version": "0.8.12+commit.f00d7308.Emscripten.clang"
  },
  "schemaVersion": "3.4.7",
  "updatedAt": "2022-05-20T09:23:01.525Z",
  "networkType": "ethereum",
  "devdoc": {
    "kind": "dev",
    "methods": {},
    "version": 1
  },
  "userdoc": {
    "kind": "user",
    "methods": {},
    "version": 1
  }
}