{
  "contractName": "drug",
  "abi": [
    {
      "inputs": [
        {
          "internalType": "address",
          "name": "giver",
          "type": "address"
        },
        {
          "internalType": "address",
          "name": "patient",
          "type": "address"
        },
        {
          "internalType": "string",
          "name": "lotlabform",
          "type": "string"
        },
        {
          "internalType": "uint256",
          "name": "count",
          "type": "uint256"
        }
      ],
      "name": "givetoPatients",
      "outputs": [],
      "stateMutability": "nonpayable",
      "type": "function"
    },
    {
      "inputs": [],
      "name": "viewPatients",
      "outputs": [
        {
          "internalType": "address[]",
          "name": "",
          "type": "address[]"
        },
        {
          "internalType": "address[]",
          "name": "",
          "type": "address[]"
        },
        {
          "internalType": "string[]",
          "name": "",
          "type": "string[]"
        },
        {
          "internalType": "uint256[]",
          "name": "",
          "type": "uint256[]"
        }
      ],
      "stateMutability": "view",
      "type": "function",
      "constant": true
    },
    {
      "inputs": [
        {
          "internalType": "address",
          "name": "waret",
          "type": "address"
        },
        {
          "internalType": "address",
          "name": "retailer",
          "type": "address"
        },
        {
          "internalType": "string",
          "name": "lotlabform",
          "type": "string"
        },
        {
          "internalType": "uint256",
          "name": "count",
          "type": "uint256"
        }
      ],
      "name": "distributeRetailers",
      "outputs": [],
      "stateMutability": "nonpayable",
      "type": "function"
    },
    {
      "inputs": [],
      "name": "viewRetailers",
      "outputs": [
        {
          "internalType": "address[]",
          "name": "",
          "type": "address[]"
        },
        {
          "internalType": "address[]",
          "name": "",
          "type": "address[]"
        },
        {
          "internalType": "string[]",
          "name": "",
          "type": "string[]"
        },
        {
          "internalType": "uint256[]",
          "name": "",
          "type": "uint256[]"
        }
      ],
      "stateMutability": "view",
      "type": "function",
      "constant": true
    },
    {
      "inputs": [
        {
          "internalType": "address",
          "name": "waret",
          "type": "address"
        },
        {
          "internalType": "address",
          "name": "hospital",
          "type": "address"
        },
        {
          "internalType": "string",
          "name": "lotlabform",
          "type": "string"
        },
        {
          "internalType": "uint256",
          "name": "count",
          "type": "uint256"
        }
      ],
      "name": "distributeHospital",
      "outputs": [],
      "stateMutability": "nonpayable",
      "type": "function"
    },
    {
      "inputs": [],
      "name": "viewHospitals",
      "outputs": [
        {
          "internalType": "address[]",
          "name": "",
          "type": "address[]"
        },
        {
          "internalType": "address[]",
          "name": "",
          "type": "address[]"
        },
        {
          "internalType": "string[]",
          "name": "",
          "type": "string[]"
        },
        {
          "internalType": "uint256[]",
          "name": "",
          "type": "uint256[]"
        }
      ],
      "stateMutability": "view",
      "type": "function",
      "constant": true
    },
    {
      "inputs": [
        {
          "internalType": "address",
          "name": "warem",
          "type": "address"
        },
        {
          "internalType": "address",
          "name": "transport",
          "type": "address"
        },
        {
          "internalType": "address",
          "name": "waret",
          "type": "address"
        },
        {
          "internalType": "uint256",
          "name": "lotid",
          "type": "uint256"
        }
      ],
      "name": "createTransport",
      "outputs": [],
      "stateMutability": "nonpayable",
      "type": "function"
    },
    {
      "inputs": [],
      "name": "viewTransport",
      "outputs": [
        {
          "internalType": "address[]",
          "name": "",
          "type": "address[]"
        },
        {
          "internalType": "address[]",
          "name": "",
          "type": "address[]"
        },
        {
          "internalType": "address[]",
          "name": "",
          "type": "address[]"
        },
        {
          "internalType": "uint256[]",
          "name": "",
          "type": "uint256[]"
        },
        {
          "internalType": "uint256[]",
          "name": "",
          "type": "uint256[]"
        }
      ],
      "stateMutability": "view",
      "type": "function",
      "constant": true
    },
    {
      "inputs": [
        {
          "internalType": "uint256",
          "name": "lotid",
          "type": "uint256"
        },
        {
          "internalType": "uint256",
          "name": "status",
          "type": "uint256"
        }
      ],
      "name": "updateTransport",
      "outputs": [],
      "stateMutability": "nonpayable",
      "type": "function"
    },
    {
      "inputs": [
        {
          "internalType": "address",
          "name": "lotmanu",
          "type": "address"
        },
        {
          "internalType": "uint256",
          "name": "lotid",
          "type": "uint256"
        },
        {
          "internalType": "uint256",
          "name": "lotpillcount",
          "type": "uint256"
        },
        {
          "internalType": "string",
          "name": "lotlabform",
          "type": "string"
        }
      ],
      "name": "createLot",
      "outputs": [],
      "stateMutability": "nonpayable",
      "type": "function"
    },
    {
      "inputs": [],
      "name": "viewLots",
      "outputs": [
        {
          "internalType": "address[]",
          "name": "",
          "type": "address[]"
        },
        {
          "internalType": "uint256[]",
          "name": "",
          "type": "uint256[]"
        },
        {
          "internalType": "uint256[]",
          "name": "",
          "type": "uint256[]"
        },
        {
          "internalType": "string[]",
          "name": "",
          "type": "string[]"
        },
        {
          "internalType": "uint256[]",
          "name": "",
          "type": "uint256[]"
        }
      ],
      "stateMutability": "view",
      "type": "function",
      "constant": true
    },
    {
      "inputs": [
        {
          "internalType": "address",
          "name": "lotmanu",
          "type": "address"
        },
        {
          "internalType": "uint256",
          "name": "lotid",
          "type": "uint256"
        },
        {
          "internalType": "address",
          "name": "lotwarehouse",
          "type": "address"
        }
      ],
      "name": "allocateLotWareM",
      "outputs": [],
      "stateMutability": "nonpayable",
      "type": "function"
    },
    {
      "inputs": [],
      "name": "viewLotWareM",
      "outputs": [
        {
          "internalType": "address[]",
          "name": "",
          "type": "address[]"
        },
        {
          "internalType": "address[]",
          "name": "",
          "type": "address[]"
        },
        {
          "internalType": "uint256[]",
          "name": "",
          "type": "uint256[]"
        }
      ],
      "stateMutability": "view",
      "type": "function",
      "constant": true
    },
    {
      "inputs": [
        {
          "internalType": "address",
          "name": "lab",
          "type": "address"
        },
        {
          "internalType": "address",
          "name": "labmanu",
          "type": "address"
        },
        {
          "internalType": "string",
          "name": "labform",
          "type": "string"
        }
      ],
      "name": "addLabManufacturer",
      "outputs": [],
      "stateMutability": "nonpayable",
      "type": "function"
    },
    {
      "inputs": [],
      "name": "viewLabManufacturers",
      "outputs": [
        {
          "internalType": "address[]",
          "name": "",
          "type": "address[]"
        },
        {
          "internalType": "address[]",
          "name": "",
          "type": "address[]"
        },
        {
          "internalType": "string[]",
          "name": "",
          "type": "string[]"
        }
      ],
      "stateMutability": "view",
      "type": "function",
      "constant": true
    },
    {
      "inputs": [
        {
          "internalType": "uint256",
          "name": "labform",
          "type": "uint256"
        },
        {
          "internalType": "string",
          "name": "feed",
          "type": "string"
        }
      ],
      "name": "addLabFeedback",
      "outputs": [],
      "stateMutability": "nonpayable",
      "type": "function"
    },
    {
      "inputs": [],
      "name": "viewLabFeedback",
      "outputs": [
        {
          "internalType": "string[][]",
          "name": "",
          "type": "string[][]"
        }
      ],
      "stateMutability": "view",
      "type": "function",
      "constant": true
    }
  ],
  "bytecode": "0x608060405234801561001057600080fd5b50612b4d806100206000396000f3fe608060405234801561001057600080fd5b506004361061010b5760003560e01c806389aa3191116100a2578063bc88b17b11610071578063bc88b17b1461027f578063c1efe6611461029f578063e096d1d5146102bd578063e769216a146102d9578063ede166b5146102f55761010b565b806389aa31911461020457806399600743146102205780639af4404214610241578063ae5d65a91461025d5761010b565b806334f18393116100de57806334f18393146101895780634a9d0b93146101a55780635a24a396146101c65780635fa82dbe146101e85761010b565b8063071ab2431461011057806314d9d2e6146101305780631c13ab611461014c5780632decedb51461016d575b600080fd5b610118610311565b604051610127939291906120a6565b60405180910390f35b61014a6004803603810190610145919061215e565b610489565b005b61015461060b565b6040516101649493929190612320565b60405180910390f35b610187600480360381019061018291906124b6565b61085c565b005b6101a3600480360381019061019e9190612512565b6108b8565b005b6101ad6109d9565b6040516101bd9493929190612320565b60405180910390f35b6101ce610c2a565b6040516101df959493929190612595565b60405180910390f35b61020260048036038101906101fd919061260b565b610e9e565b005b61021e6004803603810190610219919061264b565b610f10565b005b610228611041565b6040516102389493929190612320565b60405180910390f35b61025b6004803603810190610256919061264b565b611292565b005b6102656113c3565b6040516102769594939291906126ce565b60405180910390f35b610287611622565b60405161029693929190612744565b60405180910390f35b6102a761181b565b6040516102b491906128d8565b60405180910390f35b6102d760048036038101906102d2919061264b565b61193b565b005b6102f360048036038101906102ee91906128fa565b611a6c565b005b61030f600480360381019061030a9190612969565b611c24565b005b60608060606006600460058280548060200260200160405190810160405280929190818152602001828054801561039d57602002820191906000526020600020905b8160009054906101000a900473ffffffffffffffffffffffffffffffffffffffff1673ffffffffffffffffffffffffffffffffffffffff1681526020019060010190808311610353575b505050505092508180548060200260200160405190810160405280929190818152602001828054801561042557602002820191906000526020600020905b8160009054906101000a900473ffffffffffffffffffffffffffffffffffffffff1673ffffffffffffffffffffffffffffffffffffffff16815260200190600101908083116103db575b505050505091508080548060200260200160405190810160405280929190818152602001828054801561047757602002820191906000526020600020905b815481526020019060010190808311610463575b50505050509050925092509250909192565b600c849080600181540180825580915050600190039060005260206000200160009091909190916101000a81548173ffffffffffffffffffffffffffffffffffffffff021916908373ffffffffffffffffffffffffffffffffffffffff160217905550600d839080600181540180825580915050600190039060005260206000200160009091909190916101000a81548173ffffffffffffffffffffffffffffffffffffffff021916908373ffffffffffffffffffffffffffffffffffffffff160217905550600f819080600181540180825580915050600190039060005260206000200160009091909190915055600e829080600181540180825580915050600190039060005260206000200160009091909190916101000a81548173ffffffffffffffffffffffffffffffffffffffff021916908373ffffffffffffffffffffffffffffffffffffffff16021790555060106000908060018154018082558091505060019003906000526020600020016000909190919091505550505050565b6060806060806019601a601b601c8380548060200260200160405190810160405280929190818152602001828054801561069a57602002820191906000526020600020905b8160009054906101000a900473ffffffffffffffffffffffffffffffffffffffff1673ffffffffffffffffffffffffffffffffffffffff1681526020019060010190808311610650575b505050505093508280548060200260200160405190810160405280929190818152602001828054801561072257602002820191906000526020600020905b8160009054906101000a900473ffffffffffffffffffffffffffffffffffffffff1673ffffffffffffffffffffffffffffffffffffffff16815260200190600101908083116106d8575b5050505050925081805480602002602001604051908101604052809291908181526020016000905b828210156107f6578382906000526020600020018054610769906129eb565b80601f0160208091040260200160405190810160405280929190818152602001828054610795906129eb565b80156107e25780601f106107b7576101008083540402835291602001916107e2565b820191906000526020600020905b8154815290600101906020018083116107c557829003601f168201915b50505050508152602001906001019061074a565b5050505091508080548060200260200160405190810160405280929190818152602001828054801561084757602002820191906000526020600020905b815481526020019060010190808311610833575b50505050509050935093509350935090919293565b600382815481106108705761086f612a1d565b5b90600052602060002001819080600181540180825580915050600190039060005260206000200160009091909190915090805190602001906108b3929190611d87565b505050565b6007849080600181540180825580915050600190039060005260206000200160009091909190916101000a81548173ffffffffffffffffffffffffffffffffffffffff021916908373ffffffffffffffffffffffffffffffffffffffff16021790555060088390806001815401808255809150506001900390600052602060002001600090919091909150556009829080600181540180825580915050600190039060005260206000200160009091909190915055600a819080600181540180825580915050600190039060005260206000200160009091909190915090805190602001906109a8929190611d87565b50600b6001908060018154018082558091505060019003906000526020600020016000909190919091505550505050565b606080606080601160126013601483805480602002602001604051908101604052809291908181526020018280548015610a6857602002820191906000526020600020905b8160009054906101000a900473ffffffffffffffffffffffffffffffffffffffff1673ffffffffffffffffffffffffffffffffffffffff1681526020019060010190808311610a1e575b5050505050935082805480602002602001604051908101604052809291908181526020018280548015610af057602002820191906000526020600020905b8160009054906101000a900473ffffffffffffffffffffffffffffffffffffffff1673ffffffffffffffffffffffffffffffffffffffff1681526020019060010190808311610aa6575b5050505050925081805480602002602001604051908101604052809291908181526020016000905b82821015610bc4578382906000526020600020018054610b37906129eb565b80601f0160208091040260200160405190810160405280929190818152602001828054610b63906129eb565b8015610bb05780601f10610b8557610100808354040283529160200191610bb0565b820191906000526020600020905b815481529060010190602001808311610b9357829003601f168201915b505050505081526020019060010190610b18565b50505050915080805480602002602001604051908101604052809291908181526020018280548015610c1557602002820191906000526020600020905b815481526020019060010190808311610c01575b50505050509050935093509350935090919293565b6060806060806060600760086009600a600b84805480602002602001604051908101604052809291908181526020018280548015610cbd57602002820191906000526020600020905b8160009054906101000a900473ffffffffffffffffffffffffffffffffffffffff1673ffffffffffffffffffffffffffffffffffffffff1681526020019060010190808311610c73575b5050505050945083805480602002602001604051908101604052809291908181526020018280548015610d0f57602002820191906000526020600020905b815481526020019060010190808311610cfb575b5050505050935082805480602002602001604051908101604052809291908181526020018280548015610d6157602002820191906000526020600020905b815481526020019060010190808311610d4d575b5050505050925081805480602002602001604051908101604052809291908181526020016000905b82821015610e35578382906000526020600020018054610da8906129eb565b80601f0160208091040260200160405190810160405280929190818152602001828054610dd4906129eb565b8015610e215780601f10610df657610100808354040283529160200191610e21565b820191906000526020600020905b815481529060010190602001808311610e0457829003601f168201915b505050505081526020019060010190610d89565b50505050915080805480602002602001604051908101604052809291908181526020018280548015610e8657602002820191906000526020600020905b815481526020019060010190808311610e72575b50505050509050945094509450945094509091929394565b60005b600f80549050811015610f0b5782600f8281548110610ec357610ec2612a1d565b5b90600052602060002001541415610ef8578160108281548110610ee957610ee8612a1d565b5b90600052602060002001819055505b8080610f0390612a7b565b915050610ea1565b505050565b6011849080600181540180825580915050600190039060005260206000200160009091909190916101000a81548173ffffffffffffffffffffffffffffffffffffffff021916908373ffffffffffffffffffffffffffffffffffffffff1602179055506012839080600181540180825580915050600190039060005260206000200160009091909190916101000a81548173ffffffffffffffffffffffffffffffffffffffff021916908373ffffffffffffffffffffffffffffffffffffffff160217905550601382908060018154018082558091505060019003906000526020600020016000909190919091509080519060200190611011929190611d87565b50601481908060018154018082558091505060019003906000526020600020016000909190919091505550505050565b6060806060806015601660176018838054806020026020016040519081016040528092919081815260200182805480156110d057602002820191906000526020600020905b8160009054906101000a900473ffffffffffffffffffffffffffffffffffffffff1673ffffffffffffffffffffffffffffffffffffffff1681526020019060010190808311611086575b505050505093508280548060200260200160405190810160405280929190818152602001828054801561115857602002820191906000526020600020905b8160009054906101000a900473ffffffffffffffffffffffffffffffffffffffff1673ffffffffffffffffffffffffffffffffffffffff168152602001906001019080831161110e575b5050505050925081805480602002602001604051908101604052809291908181526020016000905b8282101561122c57838290600052602060002001805461119f906129eb565b80601f01602080910402602001604051908101604052809291908181526020018280546111cb906129eb565b80156112185780601f106111ed57610100808354040283529160200191611218565b820191906000526020600020905b8154815290600101906020018083116111fb57829003601f168201915b505050505081526020019060010190611180565b5050505091508080548060200260200160405190810160405280929190818152602001828054801561127d57602002820191906000526020600020905b815481526020019060010190808311611269575b50505050509050935093509350935090919293565b6015849080600181540180825580915050600190039060005260206000200160009091909190916101000a81548173ffffffffffffffffffffffffffffffffffffffff021916908373ffffffffffffffffffffffffffffffffffffffff1602179055506016839080600181540180825580915050600190039060005260206000200160009091909190916101000a81548173ffffffffffffffffffffffffffffffffffffffff021916908373ffffffffffffffffffffffffffffffffffffffff160217905550601782908060018154018082558091505060019003906000526020600020016000909190919091509080519060200190611393929190611d87565b50601881908060018154018082558091505060019003906000526020600020016000909190919091505550505050565b6060806060806060600c600d600e6010600f8480548060200260200160405190810160405280929190818152602001828054801561145657602002820191906000526020600020905b8160009054906101000a900473ffffffffffffffffffffffffffffffffffffffff1673ffffffffffffffffffffffffffffffffffffffff168152602001906001019080831161140c575b50505050509450838054806020026020016040519081016040528092919081815260200182805480156114de57602002820191906000526020600020905b8160009054906101000a900473ffffffffffffffffffffffffffffffffffffffff1673ffffffffffffffffffffffffffffffffffffffff1681526020019060010190808311611494575b505050505093508280548060200260200160405190810160405280929190818152602001828054801561156657602002820191906000526020600020905b8160009054906101000a900473ffffffffffffffffffffffffffffffffffffffff1673ffffffffffffffffffffffffffffffffffffffff168152602001906001019080831161151c575b50505050509250818054806020026020016040519081016040528092919081815260200182805480156115b857602002820191906000526020600020905b8154815260200190600101908083116115a4575b505050505091508080548060200260200160405190810160405280929190818152602001828054801561160a57602002820191906000526020600020905b8154815260200190600101908083116115f6575b50505050509050945094509450945094509091929394565b6060806060600060016002828054806020026020016040519081016040528092919081815260200182805480156116ae57602002820191906000526020600020905b8160009054906101000a900473ffffffffffffffffffffffffffffffffffffffff1673ffffffffffffffffffffffffffffffffffffffff1681526020019060010190808311611664575b505050505092508180548060200260200160405190810160405280929190818152602001828054801561173657602002820191906000526020600020905b8160009054906101000a900473ffffffffffffffffffffffffffffffffffffffff1673ffffffffffffffffffffffffffffffffffffffff16815260200190600101908083116116ec575b5050505050915080805480602002602001604051908101604052809291908181526020016000905b8282101561180a57838290600052602060002001805461177d906129eb565b80601f01602080910402602001604051908101604052809291908181526020018280546117a9906129eb565b80156117f65780601f106117cb576101008083540402835291602001916117f6565b820191906000526020600020905b8154815290600101906020018083116117d957829003601f168201915b50505050508152602001906001019061175e565b505050509050925092509250909192565b60606003805480602002602001604051908101604052809291908181526020016000905b8282101561193257838290600052602060002001805480602002602001604051908101604052809291908181526020016000905b8282101561191f578382906000526020600020018054611892906129eb565b80601f01602080910402602001604051908101604052809291908181526020018280546118be906129eb565b801561190b5780601f106118e05761010080835404028352916020019161190b565b820191906000526020600020905b8154815290600101906020018083116118ee57829003601f168201915b505050505081526020019060010190611873565b505050508152602001906001019061183f565b50505050905090565b6019849080600181540180825580915050600190039060005260206000200160009091909190916101000a81548173ffffffffffffffffffffffffffffffffffffffff021916908373ffffffffffffffffffffffffffffffffffffffff160217905550601a839080600181540180825580915050600190039060005260206000200160009091909190916101000a81548173ffffffffffffffffffffffffffffffffffffffff021916908373ffffffffffffffffffffffffffffffffffffffff160217905550601b82908060018154018082558091505060019003906000526020600020016000909190919091509080519060200190611a3c929190611d87565b50601c81908060018154018082558091505060019003906000526020600020016000909190919091505550505050565b6000839080600181540180825580915050600190039060005260206000200160009091909190916101000a81548173ffffffffffffffffffffffffffffffffffffffff021916908373ffffffffffffffffffffffffffffffffffffffff1602179055506001601d82604051611ae19190612b00565b908152602001604051809103902060006101000a81548160ff0219169083151502179055506001829080600181540180825580915050600190039060005260206000200160009091909190916101000a81548173ffffffffffffffffffffffffffffffffffffffff021916908373ffffffffffffffffffffffffffffffffffffffff160217905550600281908060018154018082558091505060019003906000526020600020016000909190919091509080519060200190611ba4929190611d87565b50600360405180602001604052806040518060400160405280600881526020017f4e696365204a6f6200000000000000000000000000000000000000000000000081525081525090806001815401808255809150506001900390600052602060002001600090919091909150906001611c1e929190611e0d565b50505050565b60005b600880549050811015611c92578260088281548110611c4957611c48612a1d565b5b90600052602060002001541415611c7f576000600b8281548110611c7057611c6f612a1d565b5b90600052602060002001819055505b8080611c8a90612a7b565b915050611c27565b6006849080600181540180825580915050600190039060005260206000200160009091909190916101000a81548173ffffffffffffffffffffffffffffffffffffffff021916908373ffffffffffffffffffffffffffffffffffffffff1602179055506004829080600181540180825580915050600190039060005260206000200160009091909190916101000a81548173ffffffffffffffffffffffffffffffffffffffff021916908373ffffffffffffffffffffffffffffffffffffffff160217905550600583908060018154018082558091505060019003906000526020600020016000909190919091505550505050565b828054611d93906129eb565b90600052602060002090601f016020900481019282611db55760008555611dfc565b82601f10611dce57805160ff1916838001178555611dfc565b82800160010185558215611dfc579182015b82811115611dfb578251825591602001919060010190611de0565b5b509050611e099190611e6d565b5090565b828054828255906000526020600020908101928215611e5c579160200282015b82811115611e5b578251829080519060200190611e4b929190611d87565b5091602001919060010190611e2d565b5b509050611e699190611e8a565b5090565b5b80821115611e86576000816000905550600101611e6e565b5090565b5b80821115611eaa5760008181611ea19190611eae565b50600101611e8b565b5090565b508054611eba906129eb565b6000825580601f10611ecc5750611eeb565b601f016020900490600052602060002090810190611eea9190611e6d565b5b50565b600081519050919050565b600082825260208201905092915050565b6000819050602082019050919050565b600073ffffffffffffffffffffffffffffffffffffffff82169050919050565b6000611f4582611f1a565b9050919050565b611f5581611f3a565b82525050565b6000611f678383611f4c565b60208301905092915050565b6000602082019050919050565b6000611f8b82611eee565b611f958185611ef9565b9350611fa083611f0a565b8060005b83811015611fd1578151611fb88882611f5b565b9750611fc383611f73565b925050600181019050611fa4565b5085935050505092915050565b600081519050919050565b600082825260208201905092915050565b6000819050602082019050919050565b6000819050919050565b61201d8161200a565b82525050565b600061202f8383612014565b60208301905092915050565b6000602082019050919050565b600061205382611fde565b61205d8185611fe9565b935061206883611ffa565b8060005b838110156120995781516120808882612023565b975061208b8361203b565b92505060018101905061206c565b5085935050505092915050565b600060608201905081810360008301526120c08186611f80565b905081810360208301526120d48185611f80565b905081810360408301526120e88184612048565b9050949350505050565b6000604051905090565b600080fd5b600080fd5b61210f81611f3a565b811461211a57600080fd5b50565b60008135905061212c81612106565b92915050565b61213b8161200a565b811461214657600080fd5b50565b60008135905061215881612132565b92915050565b60008060008060808587031215612178576121776120fc565b5b60006121868782880161211d565b94505060206121978782880161211d565b93505060406121a88782880161211d565b92505060606121b987828801612149565b91505092959194509250565b600081519050919050565b600082825260208201905092915050565b6000819050602082019050919050565b600081519050919050565b600082825260208201905092915050565b60005b8381101561222b578082015181840152602081019050612210565b8381111561223a576000848401525b50505050565b6000601f19601f8301169050919050565b600061225c826121f1565b61226681856121fc565b935061227681856020860161220d565b61227f81612240565b840191505092915050565b60006122968383612251565b905092915050565b6000602082019050919050565b60006122b6826121c5565b6122c081856121d0565b9350836020820285016122d2856121e1565b8060005b8581101561230e57848403895281516122ef858261228a565b94506122fa8361229e565b925060208a019950506001810190506122d6565b50829750879550505050505092915050565b6000608082019050818103600083015261233a8187611f80565b9050818103602083015261234e8186611f80565b9050818103604083015261236281856122ab565b905081810360608301526123768184612048565b905095945050505050565b600080fd5b600080fd5b7f4e487b7100000000000000000000000000000000000000000000000000000000600052604160045260246000fd5b6123c382612240565b810181811067ffffffffffffffff821117156123e2576123e161238b565b5b80604052505050565b60006123f56120f2565b905061240182826123ba565b919050565b600067ffffffffffffffff8211156124215761242061238b565b5b61242a82612240565b9050602081019050919050565b82818337600083830152505050565b600061245961245484612406565b6123eb565b90508281526020810184848401111561247557612474612386565b5b612480848285612437565b509392505050565b600082601f83011261249d5761249c612381565b5b81356124ad848260208601612446565b91505092915050565b600080604083850312156124cd576124cc6120fc565b5b60006124db85828601612149565b925050602083013567ffffffffffffffff8111156124fc576124fb612101565b5b61250885828601612488565b9150509250929050565b6000806000806080858703121561252c5761252b6120fc565b5b600061253a8782880161211d565b945050602061254b87828801612149565b935050604061255c87828801612149565b925050606085013567ffffffffffffffff81111561257d5761257c612101565b5b61258987828801612488565b91505092959194509250565b600060a08201905081810360008301526125af8188611f80565b905081810360208301526125c38187612048565b905081810360408301526125d78186612048565b905081810360608301526125eb81856122ab565b905081810360808301526125ff8184612048565b90509695505050505050565b60008060408385031215612622576126216120fc565b5b600061263085828601612149565b925050602061264185828601612149565b9150509250929050565b60008060008060808587031215612665576126646120fc565b5b60006126738782880161211d565b94505060206126848782880161211d565b935050604085013567ffffffffffffffff8111156126a5576126a4612101565b5b6126b187828801612488565b92505060606126c287828801612149565b91505092959194509250565b600060a08201905081810360008301526126e88188611f80565b905081810360208301526126fc8187611f80565b905081810360408301526127108186611f80565b905081810360608301526127248185612048565b905081810360808301526127388184612048565b90509695505050505050565b6000606082019050818103600083015261275e8186611f80565b905081810360208301526127728185611f80565b9050818103604083015261278681846122ab565b9050949350505050565b600081519050919050565b600082825260208201905092915050565b6000819050602082019050919050565b600082825260208201905092915050565b60006127d8826121c5565b6127e281856127bc565b9350836020820285016127f4856121e1565b8060005b858110156128305784840389528151612811858261228a565b945061281c8361229e565b925060208a019950506001810190506127f8565b50829750879550505050505092915050565b600061284e83836127cd565b905092915050565b6000602082019050919050565b600061286e82612790565b612878818561279b565b93508360208202850161288a856127ac565b8060005b858110156128c657848403895281516128a78582612842565b94506128b283612856565b925060208a0199505060018101905061288e565b50829750879550505050505092915050565b600060208201905081810360008301526128f28184612863565b905092915050565b600080600060608486031215612913576129126120fc565b5b60006129218682870161211d565b93505060206129328682870161211d565b925050604084013567ffffffffffffffff81111561295357612952612101565b5b61295f86828701612488565b9150509250925092565b600080600060608486031215612982576129816120fc565b5b60006129908682870161211d565b93505060206129a186828701612149565b92505060406129b28682870161211d565b9150509250925092565b7f4e487b7100000000000000000000000000000000000000000000000000000000600052602260045260246000fd5b60006002820490506001821680612a0357607f821691505b60208210811415612a1757612a166129bc565b5b50919050565b7f4e487b7100000000000000000000000000000000000000000000000000000000600052603260045260246000fd5b7f4e487b7100000000000000000000000000000000000000000000000000000000600052601160045260246000fd5b6000612a868261200a565b91507fffffffffffffffffffffffffffffffffffffffffffffffffffffffffffffffff821415612ab957612ab8612a4c565b5b600182019050919050565b600081905092915050565b6000612ada826121f1565b612ae48185612ac4565b9350612af481856020860161220d565b80840191505092915050565b6000612b0c8284612acf565b91508190509291505056fea264697066735822122007be1ac0639cbfead21549d5514bfe4b857d397ffabce496ae8b60409dc8f1a564736f6c634300080c0033",
  "immutableReferences": {},
  "source": "// SPDX-License-Identifier: MIT\npragma solidity >=0.4.22 <0.9.0;\n\ncontract drug {\n  address[] _lab;\n  address[] _labmanu;\n  string[] _labform;\n  string[][] _labfeeds;\n\n  address[] _lotwarehousem;\n  uint[] _lotidwarehousem;\n  address[] _lotmanuwarehousem;\n\n  address[] _lotmanu;\n  uint[] _lotid;\n  uint[] _lotpillcount;\n  string[] _lotlabform;\n  uint[] _lotstatus;\n\n  address[] _waremtransport;\n  address[] _transporters;\n  address[] _warettransport;\n  uint[] _lotidtransport;\n  uint[] _transportStatus;\n\n  address[] _hospitalwaret;\n  address[] _hospitals;\n  string[] _hospitallotlabform;\n  uint[] _hospitalcount; \n\n  address[] _retailwaret;\n  address[] _retailers;\n  string[] _retailerlotlabform;\n  uint[] _retailercount; \n\n  address[] _givers;\n  address[] _patients;\n  string[] _giverslotlabform;\n  uint[] _giverscount;\n\n\n  mapping(string=>bool) labmanus;\n\n  function givetoPatients(address giver, address patient, string memory lotlabform,uint count) public {\n\n    _givers.push(giver);\n    _patients.push(patient);\n    _giverslotlabform.push(lotlabform);\n    _giverscount.push(count);\n  }\n\n  function viewPatients() public view returns (address[] memory,address[] memory, string[] memory, uint[] memory) {\n    return (_givers,_patients,_giverslotlabform,_giverscount);\n  }\n\n  function distributeRetailers(address waret,address retailer,string memory lotlabform,uint count) public {\n\n    _retailwaret.push(waret);\n    _retailers.push(retailer);\n    _retailerlotlabform.push(lotlabform);\n    _retailercount.push(count);\n  }\n\n  function viewRetailers() public view returns(address[] memory, address[] memory, string[] memory, uint[] memory) {\n    return (_retailwaret,_retailers,_retailerlotlabform,_retailercount);\n  }\n\n  function distributeHospital(address waret, address hospital, string memory lotlabform, uint count) public {\n\n    _hospitalwaret.push(waret);\n    _hospitals.push(hospital);\n    _hospitallotlabform.push(lotlabform);\n    _hospitalcount.push(count);\n\n  }\n\n  function viewHospitals() public view returns(address[] memory,address[] memory, string[] memory, uint[] memory) {\n    return (_hospitalwaret,_hospitals,_hospitallotlabform,_hospitalcount);\n  }\n\n  function createTransport(address warem, address transport, address waret, uint lotid) public {\n    _waremtransport.push(warem);\n    _transporters.push(transport);\n    _lotidtransport.push(lotid);\n    _warettransport.push(waret);\n    _transportStatus.push(0);\n  }\n\n  function viewTransport() public view returns(address[] memory,address[] memory,address[] memory, uint[] memory,uint[] memory) {\n    return(_waremtransport,_transporters,_warettransport,_transportStatus,_lotidtransport);\n  }\n\n  function updateTransport(uint lotid,uint status) public {\n    uint i;\n    for(i=0;i<_lotidtransport.length;i++) {\n      if(_lotidtransport[i]==lotid) {\n        _transportStatus[i]=status;\n      }\n    }\n  }\n\n  function createLot(address lotmanu,uint lotid,uint lotpillcount,string memory lotlabform) public {\n\n    _lotmanu.push(lotmanu);\n    _lotid.push(lotid);\n    _lotpillcount.push(lotpillcount);\n    _lotlabform.push(lotlabform);\n    _lotstatus.push(1);\n\n  }\n\n  function viewLots() public view returns(address[] memory, uint[] memory,uint[] memory,string[] memory,uint[] memory) {\n\n    return(_lotmanu,_lotid,_lotpillcount,_lotlabform,_lotstatus);\n  }\n\n  function allocateLotWareM(address lotmanu,uint lotid, address lotwarehouse) public {\n   uint i;\n\n   for(i=0;i<_lotid.length;i++) {\n     if(_lotid[i]==lotid) {\n       _lotstatus[i]=0;\n     }\n   }\n\n   _lotmanuwarehousem.push(lotmanu);\n   _lotwarehousem.push(lotwarehouse);\n   _lotidwarehousem.push(lotid); \n\n  }\n\n  function viewLotWareM() public view returns (address[] memory,address[] memory, uint[] memory) {\n    return (_lotmanuwarehousem,_lotwarehousem,_lotidwarehousem);\n  }\n\n  function addLabManufacturer(address lab,address labmanu,string memory labform) public {\n\n    _lab.push(lab);\n    labmanus[labform]=true;\n    _labmanu.push(labmanu);\n    _labform.push(labform);\n    _labfeeds.push([\"Nice Job\"]);\n  }\n\n  function viewLabManufacturers() public view returns(address[] memory,address[] memory,string[] memory) {\n    return (_lab,_labmanu,_labform);\n  }\n\n  function addLabFeedback(uint labform,string memory feed) public {  \n    _labfeeds[labform].push(feed);          \n  }\n\n  function viewLabFeedback() public view returns(string[][] memory) {\n    return (_labfeeds);\n  }\n}\n",
  "sourcePath": "C:\\Users\\Madhu\\Desktop\\drug-traceability-blockchain\\contracts\\drug.sol",
  "compiler": {
    "name": "solc",
    "version": "0.8.12+commit.f00d7308.Emscripten.clang"
  },
  "schemaVersion": "3.4.7",
  "updatedAt": "2022-05-20T13:57:39.830Z",
  "networkType": "ethereum",
  "devdoc": {
    "kind": "dev",
    "methods": {},
    "version": 1
  },
  "userdoc": {
    "kind": "user",
    "methods": {},
    "version": 1
  }
}