{
  "contractName": "drug",
  "abi": [
    {
      "inputs": [
        {
          "internalType": "address",
          "name": "warem",
          "type": "address"
        },
        {
          "internalType": "address",
          "name": "transport",
          "type": "address"
        },
        {
          "internalType": "address",
          "name": "waret",
          "type": "address"
        },
        {
          "internalType": "uint256",
          "name": "lotid",
          "type": "uint256"
        }
      ],
      "name": "createTransport",
      "outputs": [],
      "stateMutability": "nonpayable",
      "type": "function"
    },
    {
      "inputs": [],
      "name": "viewTransport",
      "outputs": [
        {
          "internalType": "address[]",
          "name": "",
          "type": "address[]"
        },
        {
          "internalType": "address[]",
          "name": "",
          "type": "address[]"
        },
        {
          "internalType": "address[]",
          "name": "",
          "type": "address[]"
        },
        {
          "internalType": "uint256[]",
          "name": "",
          "type": "uint256[]"
        },
        {
          "internalType": "uint256[]",
          "name": "",
          "type": "uint256[]"
        }
      ],
      "stateMutability": "view",
      "type": "function",
      "constant": true
    },
    {
      "inputs": [
        {
          "internalType": "uint256",
          "name": "lotid",
          "type": "uint256"
        },
        {
          "internalType": "uint256",
          "name": "status",
          "type": "uint256"
        }
      ],
      "name": "updateTransport",
      "outputs": [],
      "stateMutability": "nonpayable",
      "type": "function"
    },
    {
      "inputs": [
        {
          "internalType": "address",
          "name": "lotmanu",
          "type": "address"
        },
        {
          "internalType": "uint256",
          "name": "lotid",
          "type": "uint256"
        },
        {
          "internalType": "uint256",
          "name": "lotpillcount",
          "type": "uint256"
        },
        {
          "internalType": "string",
          "name": "lotlabform",
          "type": "string"
        }
      ],
      "name": "createLot",
      "outputs": [],
      "stateMutability": "nonpayable",
      "type": "function"
    },
    {
      "inputs": [],
      "name": "viewLots",
      "outputs": [
        {
          "internalType": "address[]",
          "name": "",
          "type": "address[]"
        },
        {
          "internalType": "uint256[]",
          "name": "",
          "type": "uint256[]"
        },
        {
          "internalType": "uint256[]",
          "name": "",
          "type": "uint256[]"
        },
        {
          "internalType": "string[]",
          "name": "",
          "type": "string[]"
        },
        {
          "internalType": "uint256[]",
          "name": "",
          "type": "uint256[]"
        }
      ],
      "stateMutability": "view",
      "type": "function",
      "constant": true
    },
    {
      "inputs": [
        {
          "internalType": "address",
          "name": "lotmanu",
          "type": "address"
        },
        {
          "internalType": "uint256",
          "name": "lotid",
          "type": "uint256"
        },
        {
          "internalType": "address",
          "name": "lotwarehouse",
          "type": "address"
        }
      ],
      "name": "allocateLotWareM",
      "outputs": [],
      "stateMutability": "nonpayable",
      "type": "function"
    },
    {
      "inputs": [],
      "name": "viewLotWareM",
      "outputs": [
        {
          "internalType": "address[]",
          "name": "",
          "type": "address[]"
        },
        {
          "internalType": "address[]",
          "name": "",
          "type": "address[]"
        },
        {
          "internalType": "uint256[]",
          "name": "",
          "type": "uint256[]"
        }
      ],
      "stateMutability": "view",
      "type": "function",
      "constant": true
    },
    {
      "inputs": [
        {
          "internalType": "address",
          "name": "lab",
          "type": "address"
        },
        {
          "internalType": "address",
          "name": "labmanu",
          "type": "address"
        },
        {
          "internalType": "string",
          "name": "labform",
          "type": "string"
        }
      ],
      "name": "addLabManufacturer",
      "outputs": [],
      "stateMutability": "nonpayable",
      "type": "function"
    },
    {
      "inputs": [],
      "name": "viewLabManufacturers",
      "outputs": [
        {
          "internalType": "address[]",
          "name": "",
          "type": "address[]"
        },
        {
          "internalType": "address[]",
          "name": "",
          "type": "address[]"
        },
        {
          "internalType": "string[]",
          "name": "",
          "type": "string[]"
        }
      ],
      "stateMutability": "view",
      "type": "function",
      "constant": true
    },
    {
      "inputs": [
        {
          "internalType": "uint256",
          "name": "labform",
          "type": "uint256"
        },
        {
          "internalType": "string",
          "name": "feed",
          "type": "string"
        }
      ],
      "name": "addLabFeedback",
      "outputs": [],
      "stateMutability": "nonpayable",
      "type": "function"
    },
    {
      "inputs": [],
      "name": "viewLabFeedback",
      "outputs": [
        {
          "internalType": "string[][]",
          "name": "",
          "type": "string[][]"
        }
      ],
      "stateMutability": "view",
      "type": "function",
      "constant": true
    }
  ],
  "bytecode": "0x608060405234801561001057600080fd5b50611eca806100206000396000f3fe608060405234801561001057600080fd5b50600436106100a95760003560e01c80635fa82dbe116100715780635fa82dbe14610144578063ae5d65a914610160578063bc88b17b14610182578063c1efe661146101a2578063e769216a146101c0578063ede166b5146101dc576100a9565b8063071ab243146100ae57806314d9d2e6146100ce5780632decedb5146100ea57806334f18393146101065780635a24a39614610122575b600080fd5b6100b66101f8565b6040516100c593929190611507565b60405180910390f35b6100e860048036038101906100e391906115bf565b610370565b005b61010460048036038101906100ff919061176c565b6104f2565b005b610120600480360381019061011b91906117c8565b61054e565b005b61012a61066f565b60405161013b959493929190611995565b60405180910390f35b61015e60048036038101906101599190611a0b565b6108e3565b005b610168610955565b604051610179959493929190611a4b565b60405180910390f35b61018a610bb4565b60405161019993929190611ac1565b60405180910390f35b6101aa610dad565b6040516101b79190611c55565b60405180910390f35b6101da60048036038101906101d59190611c77565b610ecd565b005b6101f660048036038101906101f19190611ce6565b611085565b005b60608060606006600460058280548060200260200160405190810160405280929190818152602001828054801561028457602002820191906000526020600020905b8160009054906101000a900473ffffffffffffffffffffffffffffffffffffffff1673ffffffffffffffffffffffffffffffffffffffff168152602001906001019080831161023a575b505050505092508180548060200260200160405190810160405280929190818152602001828054801561030c57602002820191906000526020600020905b8160009054906101000a900473ffffffffffffffffffffffffffffffffffffffff1673ffffffffffffffffffffffffffffffffffffffff16815260200190600101908083116102c2575b505050505091508080548060200260200160405190810160405280929190818152602001828054801561035e57602002820191906000526020600020905b81548152602001906001019080831161034a575b50505050509050925092509250909192565b600c849080600181540180825580915050600190039060005260206000200160009091909190916101000a81548173ffffffffffffffffffffffffffffffffffffffff021916908373ffffffffffffffffffffffffffffffffffffffff160217905550600d839080600181540180825580915050600190039060005260206000200160009091909190916101000a81548173ffffffffffffffffffffffffffffffffffffffff021916908373ffffffffffffffffffffffffffffffffffffffff160217905550600f819080600181540180825580915050600190039060005260206000200160009091909190915055600e829080600181540180825580915050600190039060005260206000200160009091909190916101000a81548173ffffffffffffffffffffffffffffffffffffffff021916908373ffffffffffffffffffffffffffffffffffffffff16021790555060106000908060018154018082558091505060019003906000526020600020016000909190919091505550505050565b6003828154811061050657610505611d39565b5b90600052602060002001819080600181540180825580915050600190039060005260206000200160009091909190915090805190602001906105499291906111e8565b505050565b6007849080600181540180825580915050600190039060005260206000200160009091909190916101000a81548173ffffffffffffffffffffffffffffffffffffffff021916908373ffffffffffffffffffffffffffffffffffffffff16021790555060088390806001815401808255809150506001900390600052602060002001600090919091909150556009829080600181540180825580915050600190039060005260206000200160009091909190915055600a8190806001815401808255809150506001900390600052602060002001600090919091909150908051906020019061063e9291906111e8565b50600b6001908060018154018082558091505060019003906000526020600020016000909190919091505550505050565b6060806060806060600760086009600a600b8480548060200260200160405190810160405280929190818152602001828054801561070257602002820191906000526020600020905b8160009054906101000a900473ffffffffffffffffffffffffffffffffffffffff1673ffffffffffffffffffffffffffffffffffffffff16815260200190600101908083116106b8575b505050505094508380548060200260200160405190810160405280929190818152602001828054801561075457602002820191906000526020600020905b815481526020019060010190808311610740575b50505050509350828054806020026020016040519081016040528092919081815260200182805480156107a657602002820191906000526020600020905b815481526020019060010190808311610792575b5050505050925081805480602002602001604051908101604052809291908181526020016000905b8282101561087a5783829060005260206000200180546107ed90611d97565b80601f016020809104026020016040519081016040528092919081815260200182805461081990611d97565b80156108665780601f1061083b57610100808354040283529160200191610866565b820191906000526020600020905b81548152906001019060200180831161084957829003601f168201915b5050505050815260200190600101906107ce565b505050509150808054806020026020016040519081016040528092919081815260200182805480156108cb57602002820191906000526020600020905b8154815260200190600101908083116108b7575b50505050509050945094509450945094509091929394565b60005b600f805490508110156109505782600f828154811061090857610907611d39565b5b9060005260206000200154141561093d57816010828154811061092e5761092d611d39565b5b90600052602060002001819055505b808061094890611df8565b9150506108e6565b505050565b6060806060806060600c600d600e6010600f848054806020026020016040519081016040528092919081815260200182805480156109e857602002820191906000526020600020905b8160009054906101000a900473ffffffffffffffffffffffffffffffffffffffff1673ffffffffffffffffffffffffffffffffffffffff168152602001906001019080831161099e575b5050505050945083805480602002602001604051908101604052809291908181526020018280548015610a7057602002820191906000526020600020905b8160009054906101000a900473ffffffffffffffffffffffffffffffffffffffff1673ffffffffffffffffffffffffffffffffffffffff1681526020019060010190808311610a26575b5050505050935082805480602002602001604051908101604052809291908181526020018280548015610af857602002820191906000526020600020905b8160009054906101000a900473ffffffffffffffffffffffffffffffffffffffff1673ffffffffffffffffffffffffffffffffffffffff1681526020019060010190808311610aae575b5050505050925081805480602002602001604051908101604052809291908181526020018280548015610b4a57602002820191906000526020600020905b815481526020019060010190808311610b36575b5050505050915080805480602002602001604051908101604052809291908181526020018280548015610b9c57602002820191906000526020600020905b815481526020019060010190808311610b88575b50505050509050945094509450945094509091929394565b606080606060006001600282805480602002602001604051908101604052809291908181526020018280548015610c4057602002820191906000526020600020905b8160009054906101000a900473ffffffffffffffffffffffffffffffffffffffff1673ffffffffffffffffffffffffffffffffffffffff1681526020019060010190808311610bf6575b5050505050925081805480602002602001604051908101604052809291908181526020018280548015610cc857602002820191906000526020600020905b8160009054906101000a900473ffffffffffffffffffffffffffffffffffffffff1673ffffffffffffffffffffffffffffffffffffffff1681526020019060010190808311610c7e575b5050505050915080805480602002602001604051908101604052809291908181526020016000905b82821015610d9c578382906000526020600020018054610d0f90611d97565b80601f0160208091040260200160405190810160405280929190818152602001828054610d3b90611d97565b8015610d885780601f10610d5d57610100808354040283529160200191610d88565b820191906000526020600020905b815481529060010190602001808311610d6b57829003601f168201915b505050505081526020019060010190610cf0565b505050509050925092509250909192565b60606003805480602002602001604051908101604052809291908181526020016000905b82821015610ec457838290600052602060002001805480602002602001604051908101604052809291908181526020016000905b82821015610eb1578382906000526020600020018054610e2490611d97565b80601f0160208091040260200160405190810160405280929190818152602001828054610e5090611d97565b8015610e9d5780601f10610e7257610100808354040283529160200191610e9d565b820191906000526020600020905b815481529060010190602001808311610e8057829003601f168201915b505050505081526020019060010190610e05565b5050505081526020019060010190610dd1565b50505050905090565b6000839080600181540180825580915050600190039060005260206000200160009091909190916101000a81548173ffffffffffffffffffffffffffffffffffffffff021916908373ffffffffffffffffffffffffffffffffffffffff1602179055506001601182604051610f429190611e7d565b908152602001604051809103902060006101000a81548160ff0219169083151502179055506001829080600181540180825580915050600190039060005260206000200160009091909190916101000a81548173ffffffffffffffffffffffffffffffffffffffff021916908373ffffffffffffffffffffffffffffffffffffffff1602179055506002819080600181540180825580915050600190039060005260206000200160009091909190915090805190602001906110059291906111e8565b50600360405180602001604052806040518060400160405280600881526020017f4e696365204a6f620000000000000000000000000000000000000000000000008152508152509080600181540180825580915050600190039060005260206000200160009091909190915090600161107f92919061126e565b50505050565b60005b6008805490508110156110f35782600882815481106110aa576110a9611d39565b5b906000526020600020015414156110e0576000600b82815481106110d1576110d0611d39565b5b90600052602060002001819055505b80806110eb90611df8565b915050611088565b6006849080600181540180825580915050600190039060005260206000200160009091909190916101000a81548173ffffffffffffffffffffffffffffffffffffffff021916908373ffffffffffffffffffffffffffffffffffffffff1602179055506004829080600181540180825580915050600190039060005260206000200160009091909190916101000a81548173ffffffffffffffffffffffffffffffffffffffff021916908373ffffffffffffffffffffffffffffffffffffffff160217905550600583908060018154018082558091505060019003906000526020600020016000909190919091505550505050565b8280546111f490611d97565b90600052602060002090601f016020900481019282611216576000855561125d565b82601f1061122f57805160ff191683800117855561125d565b8280016001018555821561125d579182015b8281111561125c578251825591602001919060010190611241565b5b50905061126a91906112ce565b5090565b8280548282559060005260206000209081019282156112bd579160200282015b828111156112bc5782518290805190602001906112ac9291906111e8565b509160200191906001019061128e565b5b5090506112ca91906112eb565b5090565b5b808211156112e75760008160009055506001016112cf565b5090565b5b8082111561130b5760008181611302919061130f565b506001016112ec565b5090565b50805461131b90611d97565b6000825580601f1061132d575061134c565b601f01602090049060005260206000209081019061134b91906112ce565b5b50565b600081519050919050565b600082825260208201905092915050565b6000819050602082019050919050565b600073ffffffffffffffffffffffffffffffffffffffff82169050919050565b60006113a68261137b565b9050919050565b6113b68161139b565b82525050565b60006113c883836113ad565b60208301905092915050565b6000602082019050919050565b60006113ec8261134f565b6113f6818561135a565b93506114018361136b565b8060005b8381101561143257815161141988826113bc565b9750611424836113d4565b925050600181019050611405565b5085935050505092915050565b600081519050919050565b600082825260208201905092915050565b6000819050602082019050919050565b6000819050919050565b61147e8161146b565b82525050565b60006114908383611475565b60208301905092915050565b6000602082019050919050565b60006114b48261143f565b6114be818561144a565b93506114c98361145b565b8060005b838110156114fa5781516114e18882611484565b97506114ec8361149c565b9250506001810190506114cd565b5085935050505092915050565b6000606082019050818103600083015261152181866113e1565b9050818103602083015261153581856113e1565b9050818103604083015261154981846114a9565b9050949350505050565b6000604051905090565b600080fd5b600080fd5b6115708161139b565b811461157b57600080fd5b50565b60008135905061158d81611567565b92915050565b61159c8161146b565b81146115a757600080fd5b50565b6000813590506115b981611593565b92915050565b600080600080608085870312156115d9576115d861155d565b5b60006115e78782880161157e565b94505060206115f88782880161157e565b93505060406116098782880161157e565b925050606061161a878288016115aa565b91505092959194509250565b600080fd5b600080fd5b6000601f19601f8301169050919050565b7f4e487b7100000000000000000000000000000000000000000000000000000000600052604160045260246000fd5b61167982611630565b810181811067ffffffffffffffff8211171561169857611697611641565b5b80604052505050565b60006116ab611553565b90506116b78282611670565b919050565b600067ffffffffffffffff8211156116d7576116d6611641565b5b6116e082611630565b9050602081019050919050565b82818337600083830152505050565b600061170f61170a846116bc565b6116a1565b90508281526020810184848401111561172b5761172a61162b565b5b6117368482856116ed565b509392505050565b600082601f83011261175357611752611626565b5b81356117638482602086016116fc565b91505092915050565b600080604083850312156117835761178261155d565b5b6000611791858286016115aa565b925050602083013567ffffffffffffffff8111156117b2576117b1611562565b5b6117be8582860161173e565b9150509250929050565b600080600080608085870312156117e2576117e161155d565b5b60006117f08782880161157e565b9450506020611801878288016115aa565b9350506040611812878288016115aa565b925050606085013567ffffffffffffffff81111561183357611832611562565b5b61183f8782880161173e565b91505092959194509250565b600081519050919050565b600082825260208201905092915050565b6000819050602082019050919050565b600081519050919050565b600082825260208201905092915050565b60005b838110156118b1578082015181840152602081019050611896565b838111156118c0576000848401525b50505050565b60006118d182611877565b6118db8185611882565b93506118eb818560208601611893565b6118f481611630565b840191505092915050565b600061190b83836118c6565b905092915050565b6000602082019050919050565b600061192b8261184b565b6119358185611856565b93508360208202850161194785611867565b8060005b85811015611983578484038952815161196485826118ff565b945061196f83611913565b925060208a0199505060018101905061194b565b50829750879550505050505092915050565b600060a08201905081810360008301526119af81886113e1565b905081810360208301526119c381876114a9565b905081810360408301526119d781866114a9565b905081810360608301526119eb8185611920565b905081810360808301526119ff81846114a9565b90509695505050505050565b60008060408385031215611a2257611a2161155d565b5b6000611a30858286016115aa565b9250506020611a41858286016115aa565b9150509250929050565b600060a0820190508181036000830152611a6581886113e1565b90508181036020830152611a7981876113e1565b90508181036040830152611a8d81866113e1565b90508181036060830152611aa181856114a9565b90508181036080830152611ab581846114a9565b90509695505050505050565b60006060820190508181036000830152611adb81866113e1565b90508181036020830152611aef81856113e1565b90508181036040830152611b038184611920565b9050949350505050565b600081519050919050565b600082825260208201905092915050565b6000819050602082019050919050565b600082825260208201905092915050565b6000611b558261184b565b611b5f8185611b39565b935083602082028501611b7185611867565b8060005b85811015611bad5784840389528151611b8e85826118ff565b9450611b9983611913565b925060208a01995050600181019050611b75565b50829750879550505050505092915050565b6000611bcb8383611b4a565b905092915050565b6000602082019050919050565b6000611beb82611b0d565b611bf58185611b18565b935083602082028501611c0785611b29565b8060005b85811015611c435784840389528151611c248582611bbf565b9450611c2f83611bd3565b925060208a01995050600181019050611c0b565b50829750879550505050505092915050565b60006020820190508181036000830152611c6f8184611be0565b905092915050565b600080600060608486031215611c9057611c8f61155d565b5b6000611c9e8682870161157e565b9350506020611caf8682870161157e565b925050604084013567ffffffffffffffff811115611cd057611ccf611562565b5b611cdc8682870161173e565b9150509250925092565b600080600060608486031215611cff57611cfe61155d565b5b6000611d0d8682870161157e565b9350506020611d1e868287016115aa565b9250506040611d2f8682870161157e565b9150509250925092565b7f4e487b7100000000000000000000000000000000000000000000000000000000600052603260045260246000fd5b7f4e487b7100000000000000000000000000000000000000000000000000000000600052602260045260246000fd5b60006002820490506001821680611daf57607f821691505b60208210811415611dc357611dc2611d68565b5b50919050565b7f4e487b7100000000000000000000000000000000000000000000000000000000600052601160045260246000fd5b6000611e038261146b565b91507fffffffffffffffffffffffffffffffffffffffffffffffffffffffffffffffff821415611e3657611e35611dc9565b5b600182019050919050565b600081905092915050565b6000611e5782611877565b611e618185611e41565b9350611e71818560208601611893565b80840191505092915050565b6000611e898284611e4c565b91508190509291505056fea2646970667358221220185797b02b7cdb308f7fe05099f715d9a65ad8e394d86c0a50b69a9348d5fe9464736f6c634300080c0033",
  "immutableReferences": {},
  "source": "// SPDX-License-Identifier: MIT\npragma solidity >=0.4.22 <0.9.0;\n\ncontract drug {\n  address[] _lab;\n  address[] _labmanu;\n  string[] _labform;\n  string[][] _labfeeds;\n\n  address[] _lotwarehousem;\n  uint[] _lotidwarehousem;\n  address[] _lotmanuwarehousem;\n\n  address[] _lotmanu;\n  uint[] _lotid;\n  uint[] _lotpillcount;\n  string[] _lotlabform;\n  uint[] _lotstatus;\n\n  address[] _waremtransport;\n  address[] _transporters;\n  address[] _warettransport;\n  uint[] _lotidtransport;\n  uint[] _transportStatus;\n\n  mapping(string=>bool) labmanus;\n\n  function createTransport(address warem, address transport, address waret, uint lotid) public {\n    _waremtransport.push(warem);\n    _transporters.push(transport);\n    _lotidtransport.push(lotid);\n    _warettransport.push(waret);\n    _transportStatus.push(0);\n  }\n\n  function viewTransport() public view returns(address[] memory,address[] memory,address[] memory, uint[] memory,uint[] memory) {\n    return(_waremtransport,_transporters,_warettransport,_transportStatus,_lotidtransport);\n  }\n\n  function updateTransport(uint lotid,uint status) public {\n    uint i;\n    for(i=0;i<_lotidtransport.length;i++) {\n      if(_lotidtransport[i]==lotid) {\n        _transportStatus[i]=status;\n      }\n    }\n  }\n\n  function createLot(address lotmanu,uint lotid,uint lotpillcount,string memory lotlabform) public {\n\n    _lotmanu.push(lotmanu);\n    _lotid.push(lotid);\n    _lotpillcount.push(lotpillcount);\n    _lotlabform.push(lotlabform);\n    _lotstatus.push(1);\n\n  }\n\n  function viewLots() public view returns(address[] memory, uint[] memory,uint[] memory,string[] memory,uint[] memory) {\n\n    return(_lotmanu,_lotid,_lotpillcount,_lotlabform,_lotstatus);\n  }\n\n  function allocateLotWareM(address lotmanu,uint lotid, address lotwarehouse) public {\n   uint i;\n\n   for(i=0;i<_lotid.length;i++) {\n     if(_lotid[i]==lotid) {\n       _lotstatus[i]=0;\n     }\n   }\n\n   _lotmanuwarehousem.push(lotmanu);\n   _lotwarehousem.push(lotwarehouse);\n   _lotidwarehousem.push(lotid); \n\n  }\n\n  function viewLotWareM() public view returns (address[] memory,address[] memory, uint[] memory) {\n    return (_lotmanuwarehousem,_lotwarehousem,_lotidwarehousem);\n  }\n\n  function addLabManufacturer(address lab,address labmanu,string memory labform) public {\n\n    _lab.push(lab);\n    labmanus[labform]=true;\n    _labmanu.push(labmanu);\n    _labform.push(labform);\n    _labfeeds.push([\"Nice Job\"]);\n  }\n\n  function viewLabManufacturers() public view returns(address[] memory,address[] memory,string[] memory) {\n    return (_lab,_labmanu,_labform);\n  }\n\n  function addLabFeedback(uint labform,string memory feed) public {  \n    _labfeeds[labform].push(feed);          \n  }\n\n  function viewLabFeedback() public view returns(string[][] memory) {\n    return (_labfeeds);\n  }\n}\n",
  "sourcePath": "C:\\Users\\Madhu\\Desktop\\drug-traceability-blockchain\\contracts\\drug.sol",
  "compiler": {
    "name": "solc",
    "version": "0.8.12+commit.f00d7308.Emscripten.clang"
  },
  "schemaVersion": "3.4.7",
  "updatedAt": "2022-05-20T11:45:42.779Z",
  "networkType": "ethereum",
  "devdoc": {
    "kind": "dev",
    "methods": {},
    "version": 1
  },
  "userdoc": {
    "kind": "user",
    "methods": {},
    "version": 1
  }
}