{
  "contractName": "drug",
  "abi": [
    {
      "inputs": [
        {
          "internalType": "address",
          "name": "waret",
          "type": "address"
        },
        {
          "internalType": "address",
          "name": "retailer",
          "type": "address"
        },
        {
          "internalType": "string",
          "name": "lotlabform",
          "type": "string"
        },
        {
          "internalType": "uint256",
          "name": "count",
          "type": "uint256"
        }
      ],
      "name": "distributeRetailers",
      "outputs": [],
      "stateMutability": "nonpayable",
      "type": "function"
    },
    {
      "inputs": [],
      "name": "viewRetailers",
      "outputs": [
        {
          "internalType": "address[]",
          "name": "",
          "type": "address[]"
        },
        {
          "internalType": "address[]",
          "name": "",
          "type": "address[]"
        },
        {
          "internalType": "string[]",
          "name": "",
          "type": "string[]"
        },
        {
          "internalType": "uint256[]",
          "name": "",
          "type": "uint256[]"
        }
      ],
      "stateMutability": "view",
      "type": "function",
      "constant": true
    },
    {
      "inputs": [
        {
          "internalType": "address",
          "name": "waret",
          "type": "address"
        },
        {
          "internalType": "address",
          "name": "hospital",
          "type": "address"
        },
        {
          "internalType": "string",
          "name": "lotlabform",
          "type": "string"
        },
        {
          "internalType": "uint256",
          "name": "count",
          "type": "uint256"
        }
      ],
      "name": "distributeHospital",
      "outputs": [],
      "stateMutability": "nonpayable",
      "type": "function"
    },
    {
      "inputs": [],
      "name": "viewHospitals",
      "outputs": [
        {
          "internalType": "address[]",
          "name": "",
          "type": "address[]"
        },
        {
          "internalType": "address[]",
          "name": "",
          "type": "address[]"
        },
        {
          "internalType": "string[]",
          "name": "",
          "type": "string[]"
        },
        {
          "internalType": "uint256[]",
          "name": "",
          "type": "uint256[]"
        }
      ],
      "stateMutability": "view",
      "type": "function",
      "constant": true
    },
    {
      "inputs": [
        {
          "internalType": "address",
          "name": "warem",
          "type": "address"
        },
        {
          "internalType": "address",
          "name": "transport",
          "type": "address"
        },
        {
          "internalType": "address",
          "name": "waret",
          "type": "address"
        },
        {
          "internalType": "uint256",
          "name": "lotid",
          "type": "uint256"
        }
      ],
      "name": "createTransport",
      "outputs": [],
      "stateMutability": "nonpayable",
      "type": "function"
    },
    {
      "inputs": [],
      "name": "viewTransport",
      "outputs": [
        {
          "internalType": "address[]",
          "name": "",
          "type": "address[]"
        },
        {
          "internalType": "address[]",
          "name": "",
          "type": "address[]"
        },
        {
          "internalType": "address[]",
          "name": "",
          "type": "address[]"
        },
        {
          "internalType": "uint256[]",
          "name": "",
          "type": "uint256[]"
        },
        {
          "internalType": "uint256[]",
          "name": "",
          "type": "uint256[]"
        }
      ],
      "stateMutability": "view",
      "type": "function",
      "constant": true
    },
    {
      "inputs": [
        {
          "internalType": "uint256",
          "name": "lotid",
          "type": "uint256"
        },
        {
          "internalType": "uint256",
          "name": "status",
          "type": "uint256"
        }
      ],
      "name": "updateTransport",
      "outputs": [],
      "stateMutability": "nonpayable",
      "type": "function"
    },
    {
      "inputs": [
        {
          "internalType": "address",
          "name": "lotmanu",
          "type": "address"
        },
        {
          "internalType": "uint256",
          "name": "lotid",
          "type": "uint256"
        },
        {
          "internalType": "uint256",
          "name": "lotpillcount",
          "type": "uint256"
        },
        {
          "internalType": "string",
          "name": "lotlabform",
          "type": "string"
        }
      ],
      "name": "createLot",
      "outputs": [],
      "stateMutability": "nonpayable",
      "type": "function"
    },
    {
      "inputs": [],
      "name": "viewLots",
      "outputs": [
        {
          "internalType": "address[]",
          "name": "",
          "type": "address[]"
        },
        {
          "internalType": "uint256[]",
          "name": "",
          "type": "uint256[]"
        },
        {
          "internalType": "uint256[]",
          "name": "",
          "type": "uint256[]"
        },
        {
          "internalType": "string[]",
          "name": "",
          "type": "string[]"
        },
        {
          "internalType": "uint256[]",
          "name": "",
          "type": "uint256[]"
        }
      ],
      "stateMutability": "view",
      "type": "function",
      "constant": true
    },
    {
      "inputs": [
        {
          "internalType": "address",
          "name": "lotmanu",
          "type": "address"
        },
        {
          "internalType": "uint256",
          "name": "lotid",
          "type": "uint256"
        },
        {
          "internalType": "address",
          "name": "lotwarehouse",
          "type": "address"
        }
      ],
      "name": "allocateLotWareM",
      "outputs": [],
      "stateMutability": "nonpayable",
      "type": "function"
    },
    {
      "inputs": [],
      "name": "viewLotWareM",
      "outputs": [
        {
          "internalType": "address[]",
          "name": "",
          "type": "address[]"
        },
        {
          "internalType": "address[]",
          "name": "",
          "type": "address[]"
        },
        {
          "internalType": "uint256[]",
          "name": "",
          "type": "uint256[]"
        }
      ],
      "stateMutability": "view",
      "type": "function",
      "constant": true
    },
    {
      "inputs": [
        {
          "internalType": "address",
          "name": "lab",
          "type": "address"
        },
        {
          "internalType": "address",
          "name": "labmanu",
          "type": "address"
        },
        {
          "internalType": "string",
          "name": "labform",
          "type": "string"
        }
      ],
      "name": "addLabManufacturer",
      "outputs": [],
      "stateMutability": "nonpayable",
      "type": "function"
    },
    {
      "inputs": [],
      "name": "viewLabManufacturers",
      "outputs": [
        {
          "internalType": "address[]",
          "name": "",
          "type": "address[]"
        },
        {
          "internalType": "address[]",
          "name": "",
          "type": "address[]"
        },
        {
          "internalType": "string[]",
          "name": "",
          "type": "string[]"
        }
      ],
      "stateMutability": "view",
      "type": "function",
      "constant": true
    },
    {
      "inputs": [
        {
          "internalType": "uint256",
          "name": "labform",
          "type": "uint256"
        },
        {
          "internalType": "string",
          "name": "feed",
          "type": "string"
        }
      ],
      "name": "addLabFeedback",
      "outputs": [],
      "stateMutability": "nonpayable",
      "type": "function"
    },
    {
      "inputs": [],
      "name": "viewLabFeedback",
      "outputs": [
        {
          "internalType": "string[][]",
          "name": "",
          "type": "string[][]"
        }
      ],
      "stateMutability": "view",
      "type": "function",
      "constant": true
    }
  ],
  "bytecode": "0x608060405234801561001057600080fd5b50612778806100206000396000f3fe608060405234801561001057600080fd5b50600436106100f55760003560e01c806389aa319111610097578063bc88b17b11610066578063bc88b17b14610248578063c1efe66114610268578063e769216a14610286578063ede166b5146102a2576100f5565b806389aa3191146101cd57806399600743146101e95780639af440421461020a578063ae5d65a914610226576100f5565b806334f18393116100d357806334f18393146101525780634a9d0b931461016e5780635a24a3961461018f5780635fa82dbe146101b1576100f5565b8063071ab243146100fa57806314d9d2e61461011a5780632decedb514610136575b600080fd5b6101026102be565b60405161011193929190611cd1565b60405180910390f35b610134600480360381019061012f9190611d89565b610436565b005b610150600480360381019061014b9190611f36565b6105b8565b005b61016c60048036038101906101679190611f92565b610614565b005b610176610735565b604051610186949392919061215f565b60405180910390f35b610197610986565b6040516101a89594939291906121c0565b60405180910390f35b6101cb60048036038101906101c69190612236565b610bfa565b005b6101e760048036038101906101e29190612276565b610c6c565b005b6101f1610d9d565b604051610201949392919061215f565b60405180910390f35b610224600480360381019061021f9190612276565b610fee565b005b61022e61111f565b60405161023f9594939291906122f9565b60405180910390f35b61025061137e565b60405161025f9392919061236f565b60405180910390f35b610270611577565b60405161027d9190612503565b60405180910390f35b6102a0600480360381019061029b9190612525565b611697565b005b6102bc60048036038101906102b79190612594565b61184f565b005b60608060606006600460058280548060200260200160405190810160405280929190818152602001828054801561034a57602002820191906000526020600020905b8160009054906101000a900473ffffffffffffffffffffffffffffffffffffffff1673ffffffffffffffffffffffffffffffffffffffff1681526020019060010190808311610300575b50505050509250818054806020026020016040519081016040528092919081815260200182805480156103d257602002820191906000526020600020905b8160009054906101000a900473ffffffffffffffffffffffffffffffffffffffff1673ffffffffffffffffffffffffffffffffffffffff1681526020019060010190808311610388575b505050505091508080548060200260200160405190810160405280929190818152602001828054801561042457602002820191906000526020600020905b815481526020019060010190808311610410575b50505050509050925092509250909192565b600c849080600181540180825580915050600190039060005260206000200160009091909190916101000a81548173ffffffffffffffffffffffffffffffffffffffff021916908373ffffffffffffffffffffffffffffffffffffffff160217905550600d839080600181540180825580915050600190039060005260206000200160009091909190916101000a81548173ffffffffffffffffffffffffffffffffffffffff021916908373ffffffffffffffffffffffffffffffffffffffff160217905550600f819080600181540180825580915050600190039060005260206000200160009091909190915055600e829080600181540180825580915050600190039060005260206000200160009091909190916101000a81548173ffffffffffffffffffffffffffffffffffffffff021916908373ffffffffffffffffffffffffffffffffffffffff16021790555060106000908060018154018082558091505060019003906000526020600020016000909190919091505550505050565b600382815481106105cc576105cb6125e7565b5b906000526020600020018190806001815401808255809150506001900390600052602060002001600090919091909150908051906020019061060f9291906119b2565b505050565b6007849080600181540180825580915050600190039060005260206000200160009091909190916101000a81548173ffffffffffffffffffffffffffffffffffffffff021916908373ffffffffffffffffffffffffffffffffffffffff16021790555060088390806001815401808255809150506001900390600052602060002001600090919091909150556009829080600181540180825580915050600190039060005260206000200160009091909190915055600a819080600181540180825580915050600190039060005260206000200160009091909190915090805190602001906107049291906119b2565b50600b6001908060018154018082558091505060019003906000526020600020016000909190919091505550505050565b6060806060806011601260136014838054806020026020016040519081016040528092919081815260200182805480156107c457602002820191906000526020600020905b8160009054906101000a900473ffffffffffffffffffffffffffffffffffffffff1673ffffffffffffffffffffffffffffffffffffffff168152602001906001019080831161077a575b505050505093508280548060200260200160405190810160405280929190818152602001828054801561084c57602002820191906000526020600020905b8160009054906101000a900473ffffffffffffffffffffffffffffffffffffffff1673ffffffffffffffffffffffffffffffffffffffff1681526020019060010190808311610802575b5050505050925081805480602002602001604051908101604052809291908181526020016000905b8282101561092057838290600052602060002001805461089390612645565b80601f01602080910402602001604051908101604052809291908181526020018280546108bf90612645565b801561090c5780601f106108e15761010080835404028352916020019161090c565b820191906000526020600020905b8154815290600101906020018083116108ef57829003601f168201915b505050505081526020019060010190610874565b5050505091508080548060200260200160405190810160405280929190818152602001828054801561097157602002820191906000526020600020905b81548152602001906001019080831161095d575b50505050509050935093509350935090919293565b6060806060806060600760086009600a600b84805480602002602001604051908101604052809291908181526020018280548015610a1957602002820191906000526020600020905b8160009054906101000a900473ffffffffffffffffffffffffffffffffffffffff1673ffffffffffffffffffffffffffffffffffffffff16815260200190600101908083116109cf575b5050505050945083805480602002602001604051908101604052809291908181526020018280548015610a6b57602002820191906000526020600020905b815481526020019060010190808311610a57575b5050505050935082805480602002602001604051908101604052809291908181526020018280548015610abd57602002820191906000526020600020905b815481526020019060010190808311610aa9575b5050505050925081805480602002602001604051908101604052809291908181526020016000905b82821015610b91578382906000526020600020018054610b0490612645565b80601f0160208091040260200160405190810160405280929190818152602001828054610b3090612645565b8015610b7d5780601f10610b5257610100808354040283529160200191610b7d565b820191906000526020600020905b815481529060010190602001808311610b6057829003601f168201915b505050505081526020019060010190610ae5565b50505050915080805480602002602001604051908101604052809291908181526020018280548015610be257602002820191906000526020600020905b815481526020019060010190808311610bce575b50505050509050945094509450945094509091929394565b60005b600f80549050811015610c675782600f8281548110610c1f57610c1e6125e7565b5b90600052602060002001541415610c54578160108281548110610c4557610c446125e7565b5b90600052602060002001819055505b8080610c5f906126a6565b915050610bfd565b505050565b6011849080600181540180825580915050600190039060005260206000200160009091909190916101000a81548173ffffffffffffffffffffffffffffffffffffffff021916908373ffffffffffffffffffffffffffffffffffffffff1602179055506012839080600181540180825580915050600190039060005260206000200160009091909190916101000a81548173ffffffffffffffffffffffffffffffffffffffff021916908373ffffffffffffffffffffffffffffffffffffffff160217905550601382908060018154018082558091505060019003906000526020600020016000909190919091509080519060200190610d6d9291906119b2565b50601481908060018154018082558091505060019003906000526020600020016000909190919091505550505050565b606080606080601560166017601883805480602002602001604051908101604052809291908181526020018280548015610e2c57602002820191906000526020600020905b8160009054906101000a900473ffffffffffffffffffffffffffffffffffffffff1673ffffffffffffffffffffffffffffffffffffffff1681526020019060010190808311610de2575b5050505050935082805480602002602001604051908101604052809291908181526020018280548015610eb457602002820191906000526020600020905b8160009054906101000a900473ffffffffffffffffffffffffffffffffffffffff1673ffffffffffffffffffffffffffffffffffffffff1681526020019060010190808311610e6a575b5050505050925081805480602002602001604051908101604052809291908181526020016000905b82821015610f88578382906000526020600020018054610efb90612645565b80601f0160208091040260200160405190810160405280929190818152602001828054610f2790612645565b8015610f745780601f10610f4957610100808354040283529160200191610f74565b820191906000526020600020905b815481529060010190602001808311610f5757829003601f168201915b505050505081526020019060010190610edc565b50505050915080805480602002602001604051908101604052809291908181526020018280548015610fd957602002820191906000526020600020905b815481526020019060010190808311610fc5575b50505050509050935093509350935090919293565b6015849080600181540180825580915050600190039060005260206000200160009091909190916101000a81548173ffffffffffffffffffffffffffffffffffffffff021916908373ffffffffffffffffffffffffffffffffffffffff1602179055506016839080600181540180825580915050600190039060005260206000200160009091909190916101000a81548173ffffffffffffffffffffffffffffffffffffffff021916908373ffffffffffffffffffffffffffffffffffffffff1602179055506017829080600181540180825580915050600190039060005260206000200160009091909190915090805190602001906110ef9291906119b2565b50601881908060018154018082558091505060019003906000526020600020016000909190919091505550505050565b6060806060806060600c600d600e6010600f848054806020026020016040519081016040528092919081815260200182805480156111b257602002820191906000526020600020905b8160009054906101000a900473ffffffffffffffffffffffffffffffffffffffff1673ffffffffffffffffffffffffffffffffffffffff1681526020019060010190808311611168575b505050505094508380548060200260200160405190810160405280929190818152602001828054801561123a57602002820191906000526020600020905b8160009054906101000a900473ffffffffffffffffffffffffffffffffffffffff1673ffffffffffffffffffffffffffffffffffffffff16815260200190600101908083116111f0575b50505050509350828054806020026020016040519081016040528092919081815260200182805480156112c257602002820191906000526020600020905b8160009054906101000a900473ffffffffffffffffffffffffffffffffffffffff1673ffffffffffffffffffffffffffffffffffffffff1681526020019060010190808311611278575b505050505092508180548060200260200160405190810160405280929190818152602001828054801561131457602002820191906000526020600020905b815481526020019060010190808311611300575b505050505091508080548060200260200160405190810160405280929190818152602001828054801561136657602002820191906000526020600020905b815481526020019060010190808311611352575b50505050509050945094509450945094509091929394565b60608060606000600160028280548060200260200160405190810160405280929190818152602001828054801561140a57602002820191906000526020600020905b8160009054906101000a900473ffffffffffffffffffffffffffffffffffffffff1673ffffffffffffffffffffffffffffffffffffffff16815260200190600101908083116113c0575b505050505092508180548060200260200160405190810160405280929190818152602001828054801561149257602002820191906000526020600020905b8160009054906101000a900473ffffffffffffffffffffffffffffffffffffffff1673ffffffffffffffffffffffffffffffffffffffff1681526020019060010190808311611448575b5050505050915080805480602002602001604051908101604052809291908181526020016000905b828210156115665783829060005260206000200180546114d990612645565b80601f016020809104026020016040519081016040528092919081815260200182805461150590612645565b80156115525780601f1061152757610100808354040283529160200191611552565b820191906000526020600020905b81548152906001019060200180831161153557829003601f168201915b5050505050815260200190600101906114ba565b505050509050925092509250909192565b60606003805480602002602001604051908101604052809291908181526020016000905b8282101561168e57838290600052602060002001805480602002602001604051908101604052809291908181526020016000905b8282101561167b5783829060005260206000200180546115ee90612645565b80601f016020809104026020016040519081016040528092919081815260200182805461161a90612645565b80156116675780601f1061163c57610100808354040283529160200191611667565b820191906000526020600020905b81548152906001019060200180831161164a57829003601f168201915b5050505050815260200190600101906115cf565b505050508152602001906001019061159b565b50505050905090565b6000839080600181540180825580915050600190039060005260206000200160009091909190916101000a81548173ffffffffffffffffffffffffffffffffffffffff021916908373ffffffffffffffffffffffffffffffffffffffff160217905550600160198260405161170c919061272b565b908152602001604051809103902060006101000a81548160ff0219169083151502179055506001829080600181540180825580915050600190039060005260206000200160009091909190916101000a81548173ffffffffffffffffffffffffffffffffffffffff021916908373ffffffffffffffffffffffffffffffffffffffff1602179055506002819080600181540180825580915050600190039060005260206000200160009091909190915090805190602001906117cf9291906119b2565b50600360405180602001604052806040518060400160405280600881526020017f4e696365204a6f6200000000000000000000000000000000000000000000000081525081525090806001815401808255809150506001900390600052602060002001600090919091909150906001611849929190611a38565b50505050565b60005b6008805490508110156118bd578260088281548110611874576118736125e7565b5b906000526020600020015414156118aa576000600b828154811061189b5761189a6125e7565b5b90600052602060002001819055505b80806118b5906126a6565b915050611852565b6006849080600181540180825580915050600190039060005260206000200160009091909190916101000a81548173ffffffffffffffffffffffffffffffffffffffff021916908373ffffffffffffffffffffffffffffffffffffffff1602179055506004829080600181540180825580915050600190039060005260206000200160009091909190916101000a81548173ffffffffffffffffffffffffffffffffffffffff021916908373ffffffffffffffffffffffffffffffffffffffff160217905550600583908060018154018082558091505060019003906000526020600020016000909190919091505550505050565b8280546119be90612645565b90600052602060002090601f0160209004810192826119e05760008555611a27565b82601f106119f957805160ff1916838001178555611a27565b82800160010185558215611a27579182015b82811115611a26578251825591602001919060010190611a0b565b5b509050611a349190611a98565b5090565b828054828255906000526020600020908101928215611a87579160200282015b82811115611a86578251829080519060200190611a769291906119b2565b5091602001919060010190611a58565b5b509050611a949190611ab5565b5090565b5b80821115611ab1576000816000905550600101611a99565b5090565b5b80821115611ad55760008181611acc9190611ad9565b50600101611ab6565b5090565b508054611ae590612645565b6000825580601f10611af75750611b16565b601f016020900490600052602060002090810190611b159190611a98565b5b50565b600081519050919050565b600082825260208201905092915050565b6000819050602082019050919050565b600073ffffffffffffffffffffffffffffffffffffffff82169050919050565b6000611b7082611b45565b9050919050565b611b8081611b65565b82525050565b6000611b928383611b77565b60208301905092915050565b6000602082019050919050565b6000611bb682611b19565b611bc08185611b24565b9350611bcb83611b35565b8060005b83811015611bfc578151611be38882611b86565b9750611bee83611b9e565b925050600181019050611bcf565b5085935050505092915050565b600081519050919050565b600082825260208201905092915050565b6000819050602082019050919050565b6000819050919050565b611c4881611c35565b82525050565b6000611c5a8383611c3f565b60208301905092915050565b6000602082019050919050565b6000611c7e82611c09565b611c888185611c14565b9350611c9383611c25565b8060005b83811015611cc4578151611cab8882611c4e565b9750611cb683611c66565b925050600181019050611c97565b5085935050505092915050565b60006060820190508181036000830152611ceb8186611bab565b90508181036020830152611cff8185611bab565b90508181036040830152611d138184611c73565b9050949350505050565b6000604051905090565b600080fd5b600080fd5b611d3a81611b65565b8114611d4557600080fd5b50565b600081359050611d5781611d31565b92915050565b611d6681611c35565b8114611d7157600080fd5b50565b600081359050611d8381611d5d565b92915050565b60008060008060808587031215611da357611da2611d27565b5b6000611db187828801611d48565b9450506020611dc287828801611d48565b9350506040611dd387828801611d48565b9250506060611de487828801611d74565b91505092959194509250565b600080fd5b600080fd5b6000601f19601f8301169050919050565b7f4e487b7100000000000000000000000000000000000000000000000000000000600052604160045260246000fd5b611e4382611dfa565b810181811067ffffffffffffffff82111715611e6257611e61611e0b565b5b80604052505050565b6000611e75611d1d565b9050611e818282611e3a565b919050565b600067ffffffffffffffff821115611ea157611ea0611e0b565b5b611eaa82611dfa565b9050602081019050919050565b82818337600083830152505050565b6000611ed9611ed484611e86565b611e6b565b905082815260208101848484011115611ef557611ef4611df5565b5b611f00848285611eb7565b509392505050565b600082601f830112611f1d57611f1c611df0565b5b8135611f2d848260208601611ec6565b91505092915050565b60008060408385031215611f4d57611f4c611d27565b5b6000611f5b85828601611d74565b925050602083013567ffffffffffffffff811115611f7c57611f7b611d2c565b5b611f8885828601611f08565b9150509250929050565b60008060008060808587031215611fac57611fab611d27565b5b6000611fba87828801611d48565b9450506020611fcb87828801611d74565b9350506040611fdc87828801611d74565b925050606085013567ffffffffffffffff811115611ffd57611ffc611d2c565b5b61200987828801611f08565b91505092959194509250565b600081519050919050565b600082825260208201905092915050565b6000819050602082019050919050565b600081519050919050565b600082825260208201905092915050565b60005b8381101561207b578082015181840152602081019050612060565b8381111561208a576000848401525b50505050565b600061209b82612041565b6120a5818561204c565b93506120b581856020860161205d565b6120be81611dfa565b840191505092915050565b60006120d58383612090565b905092915050565b6000602082019050919050565b60006120f582612015565b6120ff8185612020565b93508360208202850161211185612031565b8060005b8581101561214d578484038952815161212e85826120c9565b9450612139836120dd565b925060208a01995050600181019050612115565b50829750879550505050505092915050565b600060808201905081810360008301526121798187611bab565b9050818103602083015261218d8186611bab565b905081810360408301526121a181856120ea565b905081810360608301526121b58184611c73565b905095945050505050565b600060a08201905081810360008301526121da8188611bab565b905081810360208301526121ee8187611c73565b905081810360408301526122028186611c73565b9050818103606083015261221681856120ea565b9050818103608083015261222a8184611c73565b90509695505050505050565b6000806040838503121561224d5761224c611d27565b5b600061225b85828601611d74565b925050602061226c85828601611d74565b9150509250929050565b600080600080608085870312156122905761228f611d27565b5b600061229e87828801611d48565b94505060206122af87828801611d48565b935050604085013567ffffffffffffffff8111156122d0576122cf611d2c565b5b6122dc87828801611f08565b92505060606122ed87828801611d74565b91505092959194509250565b600060a08201905081810360008301526123138188611bab565b905081810360208301526123278187611bab565b9050818103604083015261233b8186611bab565b9050818103606083015261234f8185611c73565b905081810360808301526123638184611c73565b90509695505050505050565b600060608201905081810360008301526123898186611bab565b9050818103602083015261239d8185611bab565b905081810360408301526123b181846120ea565b9050949350505050565b600081519050919050565b600082825260208201905092915050565b6000819050602082019050919050565b600082825260208201905092915050565b600061240382612015565b61240d81856123e7565b93508360208202850161241f85612031565b8060005b8581101561245b578484038952815161243c85826120c9565b9450612447836120dd565b925060208a01995050600181019050612423565b50829750879550505050505092915050565b600061247983836123f8565b905092915050565b6000602082019050919050565b6000612499826123bb565b6124a381856123c6565b9350836020820285016124b5856123d7565b8060005b858110156124f157848403895281516124d2858261246d565b94506124dd83612481565b925060208a019950506001810190506124b9565b50829750879550505050505092915050565b6000602082019050818103600083015261251d818461248e565b905092915050565b60008060006060848603121561253e5761253d611d27565b5b600061254c86828701611d48565b935050602061255d86828701611d48565b925050604084013567ffffffffffffffff81111561257e5761257d611d2c565b5b61258a86828701611f08565b9150509250925092565b6000806000606084860312156125ad576125ac611d27565b5b60006125bb86828701611d48565b93505060206125cc86828701611d74565b92505060406125dd86828701611d48565b9150509250925092565b7f4e487b7100000000000000000000000000000000000000000000000000000000600052603260045260246000fd5b7f4e487b7100000000000000000000000000000000000000000000000000000000600052602260045260246000fd5b6000600282049050600182168061265d57607f821691505b6020821081141561267157612670612616565b5b50919050565b7f4e487b7100000000000000000000000000000000000000000000000000000000600052601160045260246000fd5b60006126b182611c35565b91507fffffffffffffffffffffffffffffffffffffffffffffffffffffffffffffffff8214156126e4576126e3612677565b5b600182019050919050565b600081905092915050565b600061270582612041565b61270f81856126ef565b935061271f81856020860161205d565b80840191505092915050565b600061273782846126fa565b91508190509291505056fea2646970667358221220657080844e74b91761ec22f3f7fe1e9a0d6fff681efa45b3bd6c2f5a6ee580da64736f6c634300080c0033",
  "immutableReferences": {},
  "source": "// SPDX-License-Identifier: MIT\npragma solidity >=0.4.22 <0.9.0;\n\ncontract drug {\n  address[] _lab;\n  address[] _labmanu;\n  string[] _labform;\n  string[][] _labfeeds;\n\n  address[] _lotwarehousem;\n  uint[] _lotidwarehousem;\n  address[] _lotmanuwarehousem;\n\n  address[] _lotmanu;\n  uint[] _lotid;\n  uint[] _lotpillcount;\n  string[] _lotlabform;\n  uint[] _lotstatus;\n\n  address[] _waremtransport;\n  address[] _transporters;\n  address[] _warettransport;\n  uint[] _lotidtransport;\n  uint[] _transportStatus;\n\n  address[] _hospitalwaret;\n  address[] _hospitals;\n  string[] _hospitallotlabform;\n  uint[] _hospitalcount; \n\n  address[] _retailwaret;\n  address[] _retailers;\n  string[] _retailerlotlabform;\n  uint[] _retailercount; \n\n\n\n  mapping(string=>bool) labmanus;\n\n  function distributeRetailers(address waret,address retailer,string memory lotlabform,uint count) public {\n\n    _retailwaret.push(waret);\n    _retailers.push(retailer);\n    _retailerlotlabform.push(lotlabform);\n    _retailercount.push(count);\n  }\n\n  function viewRetailers() public view returns(address[] memory, address[] memory, string[] memory, uint[] memory) {\n    return (_retailwaret,_retailers,_retailerlotlabform,_retailercount);\n  }\n\n  function distributeHospital(address waret, address hospital, string memory lotlabform, uint count) public {\n\n    _hospitalwaret.push(waret);\n    _hospitals.push(hospital);\n    _hospitallotlabform.push(lotlabform);\n    _hospitalcount.push(count);\n\n  }\n\n  function viewHospitals() public view returns(address[] memory,address[] memory, string[] memory, uint[] memory) {\n    return (_hospitalwaret,_hospitals,_hospitallotlabform,_hospitalcount);\n  }\n\n  function createTransport(address warem, address transport, address waret, uint lotid) public {\n    _waremtransport.push(warem);\n    _transporters.push(transport);\n    _lotidtransport.push(lotid);\n    _warettransport.push(waret);\n    _transportStatus.push(0);\n  }\n\n  function viewTransport() public view returns(address[] memory,address[] memory,address[] memory, uint[] memory,uint[] memory) {\n    return(_waremtransport,_transporters,_warettransport,_transportStatus,_lotidtransport);\n  }\n\n  function updateTransport(uint lotid,uint status) public {\n    uint i;\n    for(i=0;i<_lotidtransport.length;i++) {\n      if(_lotidtransport[i]==lotid) {\n        _transportStatus[i]=status;\n      }\n    }\n  }\n\n  function createLot(address lotmanu,uint lotid,uint lotpillcount,string memory lotlabform) public {\n\n    _lotmanu.push(lotmanu);\n    _lotid.push(lotid);\n    _lotpillcount.push(lotpillcount);\n    _lotlabform.push(lotlabform);\n    _lotstatus.push(1);\n\n  }\n\n  function viewLots() public view returns(address[] memory, uint[] memory,uint[] memory,string[] memory,uint[] memory) {\n\n    return(_lotmanu,_lotid,_lotpillcount,_lotlabform,_lotstatus);\n  }\n\n  function allocateLotWareM(address lotmanu,uint lotid, address lotwarehouse) public {\n   uint i;\n\n   for(i=0;i<_lotid.length;i++) {\n     if(_lotid[i]==lotid) {\n       _lotstatus[i]=0;\n     }\n   }\n\n   _lotmanuwarehousem.push(lotmanu);\n   _lotwarehousem.push(lotwarehouse);\n   _lotidwarehousem.push(lotid); \n\n  }\n\n  function viewLotWareM() public view returns (address[] memory,address[] memory, uint[] memory) {\n    return (_lotmanuwarehousem,_lotwarehousem,_lotidwarehousem);\n  }\n\n  function addLabManufacturer(address lab,address labmanu,string memory labform) public {\n\n    _lab.push(lab);\n    labmanus[labform]=true;\n    _labmanu.push(labmanu);\n    _labform.push(labform);\n    _labfeeds.push([\"Nice Job\"]);\n  }\n\n  function viewLabManufacturers() public view returns(address[] memory,address[] memory,string[] memory) {\n    return (_lab,_labmanu,_labform);\n  }\n\n  function addLabFeedback(uint labform,string memory feed) public {  \n    _labfeeds[labform].push(feed);          \n  }\n\n  function viewLabFeedback() public view returns(string[][] memory) {\n    return (_labfeeds);\n  }\n}\n",
  "sourcePath": "C:\\Users\\Madhu\\Desktop\\drug-traceability-blockchain\\contracts\\drug.sol",
  "compiler": {
    "name": "solc",
    "version": "0.8.12+commit.f00d7308.Emscripten.clang"
  },
  "schemaVersion": "3.4.7",
  "updatedAt": "2022-05-20T13:00:07.044Z",
  "networkType": "ethereum",
  "devdoc": {
    "kind": "dev",
    "methods": {},
    "version": 1
  },
  "userdoc": {
    "kind": "user",
    "methods": {},
    "version": 1
  }
}