{
  "contractName": "drug",
  "abi": [
    {
      "inputs": [
        {
          "internalType": "address",
          "name": "warem",
          "type": "address"
        },
        {
          "internalType": "address",
          "name": "transport",
          "type": "address"
        },
        {
          "internalType": "address",
          "name": "waret",
          "type": "address"
        },
        {
          "internalType": "uint256",
          "name": "lotid",
          "type": "uint256"
        }
      ],
      "name": "createTransport",
      "outputs": [],
      "stateMutability": "nonpayable",
      "type": "function"
    },
    {
      "inputs": [],
      "name": "viewTransport",
      "outputs": [
        {
          "internalType": "address[]",
          "name": "",
          "type": "address[]"
        },
        {
          "internalType": "address[]",
          "name": "",
          "type": "address[]"
        },
        {
          "internalType": "address[]",
          "name": "",
          "type": "address[]"
        },
        {
          "internalType": "uint256[]",
          "name": "",
          "type": "uint256[]"
        },
        {
          "internalType": "uint256[]",
          "name": "",
          "type": "uint256[]"
        }
      ],
      "stateMutability": "view",
      "type": "function",
      "constant": true
    },
    {
      "inputs": [
        {
          "internalType": "address",
          "name": "lotmanu",
          "type": "address"
        },
        {
          "internalType": "uint256",
          "name": "lotid",
          "type": "uint256"
        },
        {
          "internalType": "uint256",
          "name": "lotpillcount",
          "type": "uint256"
        },
        {
          "internalType": "string",
          "name": "lotlabform",
          "type": "string"
        }
      ],
      "name": "createLot",
      "outputs": [],
      "stateMutability": "nonpayable",
      "type": "function"
    },
    {
      "inputs": [],
      "name": "viewLots",
      "outputs": [
        {
          "internalType": "address[]",
          "name": "",
          "type": "address[]"
        },
        {
          "internalType": "uint256[]",
          "name": "",
          "type": "uint256[]"
        },
        {
          "internalType": "uint256[]",
          "name": "",
          "type": "uint256[]"
        },
        {
          "internalType": "string[]",
          "name": "",
          "type": "string[]"
        },
        {
          "internalType": "uint256[]",
          "name": "",
          "type": "uint256[]"
        }
      ],
      "stateMutability": "view",
      "type": "function",
      "constant": true
    },
    {
      "inputs": [
        {
          "internalType": "address",
          "name": "lotmanu",
          "type": "address"
        },
        {
          "internalType": "uint256",
          "name": "lotid",
          "type": "uint256"
        },
        {
          "internalType": "address",
          "name": "lotwarehouse",
          "type": "address"
        }
      ],
      "name": "allocateLotWareM",
      "outputs": [],
      "stateMutability": "nonpayable",
      "type": "function"
    },
    {
      "inputs": [],
      "name": "viewLotWareM",
      "outputs": [
        {
          "internalType": "address[]",
          "name": "",
          "type": "address[]"
        },
        {
          "internalType": "address[]",
          "name": "",
          "type": "address[]"
        },
        {
          "internalType": "uint256[]",
          "name": "",
          "type": "uint256[]"
        }
      ],
      "stateMutability": "view",
      "type": "function",
      "constant": true
    },
    {
      "inputs": [
        {
          "internalType": "address",
          "name": "lab",
          "type": "address"
        },
        {
          "internalType": "address",
          "name": "labmanu",
          "type": "address"
        },
        {
          "internalType": "string",
          "name": "labform",
          "type": "string"
        }
      ],
      "name": "addLabManufacturer",
      "outputs": [],
      "stateMutability": "nonpayable",
      "type": "function"
    },
    {
      "inputs": [],
      "name": "viewLabManufacturers",
      "outputs": [
        {
          "internalType": "address[]",
          "name": "",
          "type": "address[]"
        },
        {
          "internalType": "address[]",
          "name": "",
          "type": "address[]"
        },
        {
          "internalType": "string[]",
          "name": "",
          "type": "string[]"
        }
      ],
      "stateMutability": "view",
      "type": "function",
      "constant": true
    },
    {
      "inputs": [
        {
          "internalType": "uint256",
          "name": "labform",
          "type": "uint256"
        },
        {
          "internalType": "string",
          "name": "feed",
          "type": "string"
        }
      ],
      "name": "addLabFeedback",
      "outputs": [],
      "stateMutability": "nonpayable",
      "type": "function"
    },
    {
      "inputs": [],
      "name": "viewLabFeedback",
      "outputs": [
        {
          "internalType": "string[][]",
          "name": "",
          "type": "string[][]"
        }
      ],
      "stateMutability": "view",
      "type": "function",
      "constant": true
    }
  ],
  "bytecode": "0x608060405234801561001057600080fd5b50611df1806100206000396000f3fe608060405234801561001057600080fd5b506004361061009e5760003560e01c8063ae5d65a911610066578063ae5d65a914610139578063bc88b17b1461015b578063c1efe6611461017b578063e769216a14610199578063ede166b5146101b55761009e565b8063071ab243146100a357806314d9d2e6146100c35780632decedb5146100df57806334f18393146100fb5780635a24a39614610117575b600080fd5b6100ab6101d1565b6040516100ba9392919061146e565b60405180910390f35b6100dd60048036038101906100d89190611526565b610349565b005b6100f960048036038101906100f491906116d3565b6104cb565b005b6101156004803603810190610110919061172f565b610527565b005b61011f610648565b6040516101309594939291906118fc565b60405180910390f35b6101416108bc565b604051610152959493929190611972565b60405180910390f35b610163610b1b565b604051610172939291906119e8565b60405180910390f35b610183610d14565b6040516101909190611b7c565b60405180910390f35b6101b360048036038101906101ae9190611b9e565b610e34565b005b6101cf60048036038101906101ca9190611c0d565b610fec565b005b60608060606006600460058280548060200260200160405190810160405280929190818152602001828054801561025d57602002820191906000526020600020905b8160009054906101000a900473ffffffffffffffffffffffffffffffffffffffff1673ffffffffffffffffffffffffffffffffffffffff1681526020019060010190808311610213575b50505050509250818054806020026020016040519081016040528092919081815260200182805480156102e557602002820191906000526020600020905b8160009054906101000a900473ffffffffffffffffffffffffffffffffffffffff1673ffffffffffffffffffffffffffffffffffffffff168152602001906001019080831161029b575b505050505091508080548060200260200160405190810160405280929190818152602001828054801561033757602002820191906000526020600020905b815481526020019060010190808311610323575b50505050509050925092509250909192565b600c849080600181540180825580915050600190039060005260206000200160009091909190916101000a81548173ffffffffffffffffffffffffffffffffffffffff021916908373ffffffffffffffffffffffffffffffffffffffff160217905550600d839080600181540180825580915050600190039060005260206000200160009091909190916101000a81548173ffffffffffffffffffffffffffffffffffffffff021916908373ffffffffffffffffffffffffffffffffffffffff160217905550600f819080600181540180825580915050600190039060005260206000200160009091909190915055600e829080600181540180825580915050600190039060005260206000200160009091909190916101000a81548173ffffffffffffffffffffffffffffffffffffffff021916908373ffffffffffffffffffffffffffffffffffffffff16021790555060106000908060018154018082558091505060019003906000526020600020016000909190919091505550505050565b600382815481106104df576104de611c60565b5b906000526020600020018190806001815401808255809150506001900390600052602060002001600090919091909150908051906020019061052292919061114f565b505050565b6007849080600181540180825580915050600190039060005260206000200160009091909190916101000a81548173ffffffffffffffffffffffffffffffffffffffff021916908373ffffffffffffffffffffffffffffffffffffffff16021790555060088390806001815401808255809150506001900390600052602060002001600090919091909150556009829080600181540180825580915050600190039060005260206000200160009091909190915055600a8190806001815401808255809150506001900390600052602060002001600090919091909150908051906020019061061792919061114f565b50600b6001908060018154018082558091505060019003906000526020600020016000909190919091505550505050565b6060806060806060600760086009600a600b848054806020026020016040519081016040528092919081815260200182805480156106db57602002820191906000526020600020905b8160009054906101000a900473ffffffffffffffffffffffffffffffffffffffff1673ffffffffffffffffffffffffffffffffffffffff1681526020019060010190808311610691575b505050505094508380548060200260200160405190810160405280929190818152602001828054801561072d57602002820191906000526020600020905b815481526020019060010190808311610719575b505050505093508280548060200260200160405190810160405280929190818152602001828054801561077f57602002820191906000526020600020905b81548152602001906001019080831161076b575b5050505050925081805480602002602001604051908101604052809291908181526020016000905b828210156108535783829060005260206000200180546107c690611cbe565b80601f01602080910402602001604051908101604052809291908181526020018280546107f290611cbe565b801561083f5780601f106108145761010080835404028352916020019161083f565b820191906000526020600020905b81548152906001019060200180831161082257829003601f168201915b5050505050815260200190600101906107a7565b505050509150808054806020026020016040519081016040528092919081815260200182805480156108a457602002820191906000526020600020905b815481526020019060010190808311610890575b50505050509050945094509450945094509091929394565b6060806060806060600c600d600e6010600f8480548060200260200160405190810160405280929190818152602001828054801561094f57602002820191906000526020600020905b8160009054906101000a900473ffffffffffffffffffffffffffffffffffffffff1673ffffffffffffffffffffffffffffffffffffffff1681526020019060010190808311610905575b50505050509450838054806020026020016040519081016040528092919081815260200182805480156109d757602002820191906000526020600020905b8160009054906101000a900473ffffffffffffffffffffffffffffffffffffffff1673ffffffffffffffffffffffffffffffffffffffff168152602001906001019080831161098d575b5050505050935082805480602002602001604051908101604052809291908181526020018280548015610a5f57602002820191906000526020600020905b8160009054906101000a900473ffffffffffffffffffffffffffffffffffffffff1673ffffffffffffffffffffffffffffffffffffffff1681526020019060010190808311610a15575b5050505050925081805480602002602001604051908101604052809291908181526020018280548015610ab157602002820191906000526020600020905b815481526020019060010190808311610a9d575b5050505050915080805480602002602001604051908101604052809291908181526020018280548015610b0357602002820191906000526020600020905b815481526020019060010190808311610aef575b50505050509050945094509450945094509091929394565b606080606060006001600282805480602002602001604051908101604052809291908181526020018280548015610ba757602002820191906000526020600020905b8160009054906101000a900473ffffffffffffffffffffffffffffffffffffffff1673ffffffffffffffffffffffffffffffffffffffff1681526020019060010190808311610b5d575b5050505050925081805480602002602001604051908101604052809291908181526020018280548015610c2f57602002820191906000526020600020905b8160009054906101000a900473ffffffffffffffffffffffffffffffffffffffff1673ffffffffffffffffffffffffffffffffffffffff1681526020019060010190808311610be5575b5050505050915080805480602002602001604051908101604052809291908181526020016000905b82821015610d03578382906000526020600020018054610c7690611cbe565b80601f0160208091040260200160405190810160405280929190818152602001828054610ca290611cbe565b8015610cef5780601f10610cc457610100808354040283529160200191610cef565b820191906000526020600020905b815481529060010190602001808311610cd257829003601f168201915b505050505081526020019060010190610c57565b505050509050925092509250909192565b60606003805480602002602001604051908101604052809291908181526020016000905b82821015610e2b57838290600052602060002001805480602002602001604051908101604052809291908181526020016000905b82821015610e18578382906000526020600020018054610d8b90611cbe565b80601f0160208091040260200160405190810160405280929190818152602001828054610db790611cbe565b8015610e045780601f10610dd957610100808354040283529160200191610e04565b820191906000526020600020905b815481529060010190602001808311610de757829003601f168201915b505050505081526020019060010190610d6c565b5050505081526020019060010190610d38565b50505050905090565b6000839080600181540180825580915050600190039060005260206000200160009091909190916101000a81548173ffffffffffffffffffffffffffffffffffffffff021916908373ffffffffffffffffffffffffffffffffffffffff1602179055506001601182604051610ea99190611d2c565b908152602001604051809103902060006101000a81548160ff0219169083151502179055506001829080600181540180825580915050600190039060005260206000200160009091909190916101000a81548173ffffffffffffffffffffffffffffffffffffffff021916908373ffffffffffffffffffffffffffffffffffffffff160217905550600281908060018154018082558091505060019003906000526020600020016000909190919091509080519060200190610f6c92919061114f565b50600360405180602001604052806040518060400160405280600881526020017f4e696365204a6f6200000000000000000000000000000000000000000000000081525081525090806001815401808255809150506001900390600052602060002001600090919091909150906001610fe69291906111d5565b50505050565b60005b60088054905081101561105a57826008828154811061101157611010611c60565b5b90600052602060002001541415611047576000600b828154811061103857611037611c60565b5b90600052602060002001819055505b808061105290611d72565b915050610fef565b6006849080600181540180825580915050600190039060005260206000200160009091909190916101000a81548173ffffffffffffffffffffffffffffffffffffffff021916908373ffffffffffffffffffffffffffffffffffffffff1602179055506004829080600181540180825580915050600190039060005260206000200160009091909190916101000a81548173ffffffffffffffffffffffffffffffffffffffff021916908373ffffffffffffffffffffffffffffffffffffffff160217905550600583908060018154018082558091505060019003906000526020600020016000909190919091505550505050565b82805461115b90611cbe565b90600052602060002090601f01602090048101928261117d57600085556111c4565b82601f1061119657805160ff19168380011785556111c4565b828001600101855582156111c4579182015b828111156111c35782518255916020019190600101906111a8565b5b5090506111d19190611235565b5090565b828054828255906000526020600020908101928215611224579160200282015b8281111561122357825182908051906020019061121392919061114f565b50916020019190600101906111f5565b5b5090506112319190611252565b5090565b5b8082111561124e576000816000905550600101611236565b5090565b5b8082111561127257600081816112699190611276565b50600101611253565b5090565b50805461128290611cbe565b6000825580601f1061129457506112b3565b601f0160209004906000526020600020908101906112b29190611235565b5b50565b600081519050919050565b600082825260208201905092915050565b6000819050602082019050919050565b600073ffffffffffffffffffffffffffffffffffffffff82169050919050565b600061130d826112e2565b9050919050565b61131d81611302565b82525050565b600061132f8383611314565b60208301905092915050565b6000602082019050919050565b6000611353826112b6565b61135d81856112c1565b9350611368836112d2565b8060005b838110156113995781516113808882611323565b975061138b8361133b565b92505060018101905061136c565b5085935050505092915050565b600081519050919050565b600082825260208201905092915050565b6000819050602082019050919050565b6000819050919050565b6113e5816113d2565b82525050565b60006113f783836113dc565b60208301905092915050565b6000602082019050919050565b600061141b826113a6565b61142581856113b1565b9350611430836113c2565b8060005b8381101561146157815161144888826113eb565b975061145383611403565b925050600181019050611434565b5085935050505092915050565b600060608201905081810360008301526114888186611348565b9050818103602083015261149c8185611348565b905081810360408301526114b08184611410565b9050949350505050565b6000604051905090565b600080fd5b600080fd5b6114d781611302565b81146114e257600080fd5b50565b6000813590506114f4816114ce565b92915050565b611503816113d2565b811461150e57600080fd5b50565b600081359050611520816114fa565b92915050565b600080600080608085870312156115405761153f6114c4565b5b600061154e878288016114e5565b945050602061155f878288016114e5565b9350506040611570878288016114e5565b925050606061158187828801611511565b91505092959194509250565b600080fd5b600080fd5b6000601f19601f8301169050919050565b7f4e487b7100000000000000000000000000000000000000000000000000000000600052604160045260246000fd5b6115e082611597565b810181811067ffffffffffffffff821117156115ff576115fe6115a8565b5b80604052505050565b60006116126114ba565b905061161e82826115d7565b919050565b600067ffffffffffffffff82111561163e5761163d6115a8565b5b61164782611597565b9050602081019050919050565b82818337600083830152505050565b600061167661167184611623565b611608565b90508281526020810184848401111561169257611691611592565b5b61169d848285611654565b509392505050565b600082601f8301126116ba576116b961158d565b5b81356116ca848260208601611663565b91505092915050565b600080604083850312156116ea576116e96114c4565b5b60006116f885828601611511565b925050602083013567ffffffffffffffff811115611719576117186114c9565b5b611725858286016116a5565b9150509250929050565b60008060008060808587031215611749576117486114c4565b5b6000611757878288016114e5565b945050602061176887828801611511565b935050604061177987828801611511565b925050606085013567ffffffffffffffff81111561179a576117996114c9565b5b6117a6878288016116a5565b91505092959194509250565b600081519050919050565b600082825260208201905092915050565b6000819050602082019050919050565b600081519050919050565b600082825260208201905092915050565b60005b838110156118185780820151818401526020810190506117fd565b83811115611827576000848401525b50505050565b6000611838826117de565b61184281856117e9565b93506118528185602086016117fa565b61185b81611597565b840191505092915050565b6000611872838361182d565b905092915050565b6000602082019050919050565b6000611892826117b2565b61189c81856117bd565b9350836020820285016118ae856117ce565b8060005b858110156118ea57848403895281516118cb8582611866565b94506118d68361187a565b925060208a019950506001810190506118b2565b50829750879550505050505092915050565b600060a08201905081810360008301526119168188611348565b9050818103602083015261192a8187611410565b9050818103604083015261193e8186611410565b905081810360608301526119528185611887565b905081810360808301526119668184611410565b90509695505050505050565b600060a082019050818103600083015261198c8188611348565b905081810360208301526119a08187611348565b905081810360408301526119b48186611348565b905081810360608301526119c88185611410565b905081810360808301526119dc8184611410565b90509695505050505050565b60006060820190508181036000830152611a028186611348565b90508181036020830152611a168185611348565b90508181036040830152611a2a8184611887565b9050949350505050565b600081519050919050565b600082825260208201905092915050565b6000819050602082019050919050565b600082825260208201905092915050565b6000611a7c826117b2565b611a868185611a60565b935083602082028501611a98856117ce565b8060005b85811015611ad45784840389528151611ab58582611866565b9450611ac08361187a565b925060208a01995050600181019050611a9c565b50829750879550505050505092915050565b6000611af28383611a71565b905092915050565b6000602082019050919050565b6000611b1282611a34565b611b1c8185611a3f565b935083602082028501611b2e85611a50565b8060005b85811015611b6a5784840389528151611b4b8582611ae6565b9450611b5683611afa565b925060208a01995050600181019050611b32565b50829750879550505050505092915050565b60006020820190508181036000830152611b968184611b07565b905092915050565b600080600060608486031215611bb757611bb66114c4565b5b6000611bc5868287016114e5565b9350506020611bd6868287016114e5565b925050604084013567ffffffffffffffff811115611bf757611bf66114c9565b5b611c03868287016116a5565b9150509250925092565b600080600060608486031215611c2657611c256114c4565b5b6000611c34868287016114e5565b9350506020611c4586828701611511565b9250506040611c56868287016114e5565b9150509250925092565b7f4e487b7100000000000000000000000000000000000000000000000000000000600052603260045260246000fd5b7f4e487b7100000000000000000000000000000000000000000000000000000000600052602260045260246000fd5b60006002820490506001821680611cd657607f821691505b60208210811415611cea57611ce9611c8f565b5b50919050565b600081905092915050565b6000611d06826117de565b611d108185611cf0565b9350611d208185602086016117fa565b80840191505092915050565b6000611d388284611cfb565b915081905092915050565b7f4e487b7100000000000000000000000000000000000000000000000000000000600052601160045260246000fd5b6000611d7d826113d2565b91507fffffffffffffffffffffffffffffffffffffffffffffffffffffffffffffffff821415611db057611daf611d43565b5b60018201905091905056fea26469706673582212201e25c8a65e10e46986b0c549a268eab19226edd7dcaa145a4304ab26fa0ebd3464736f6c634300080c0033",
  "immutableReferences": {},
  "source": "// SPDX-License-Identifier: MIT\npragma solidity >=0.4.22 <0.9.0;\n\ncontract drug {\n  address[] _lab;\n  address[] _labmanu;\n  string[] _labform;\n  string[][] _labfeeds;\n\n  address[] _lotwarehousem;\n  uint[] _lotidwarehousem;\n  address[] _lotmanuwarehousem;\n\n  address[] _lotmanu;\n  uint[] _lotid;\n  uint[] _lotpillcount;\n  string[] _lotlabform;\n  uint[] _lotstatus;\n\n  address[] _waremtransport;\n  address[] _transporters;\n  address[] _warettransport;\n  uint[] _lotidtransport;\n  uint[] _transportStatus;\n\n  mapping(string=>bool) labmanus;\n\n  function createTransport(address warem, address transport, address waret, uint lotid) public {\n    _waremtransport.push(warem);\n    _transporters.push(transport);\n    _lotidtransport.push(lotid);\n    _warettransport.push(waret);\n    _transportStatus.push(0);\n  }\n\n  function viewTransport() public view returns(address[] memory,address[] memory,address[] memory, uint[] memory,uint[] memory) {\n    return(_waremtransport,_transporters,_warettransport,_transportStatus,_lotidtransport);\n  }\n\n  function createLot(address lotmanu,uint lotid,uint lotpillcount,string memory lotlabform) public {\n\n    _lotmanu.push(lotmanu);\n    _lotid.push(lotid);\n    _lotpillcount.push(lotpillcount);\n    _lotlabform.push(lotlabform);\n    _lotstatus.push(1);\n\n  }\n\n  function viewLots() public view returns(address[] memory, uint[] memory,uint[] memory,string[] memory,uint[] memory) {\n\n    return(_lotmanu,_lotid,_lotpillcount,_lotlabform,_lotstatus);\n  }\n\n  function allocateLotWareM(address lotmanu,uint lotid, address lotwarehouse) public {\n   uint i;\n\n   for(i=0;i<_lotid.length;i++) {\n     if(_lotid[i]==lotid) {\n       _lotstatus[i]=0;\n     }\n   }\n\n   _lotmanuwarehousem.push(lotmanu);\n   _lotwarehousem.push(lotwarehouse);\n   _lotidwarehousem.push(lotid); \n\n  }\n\n  function viewLotWareM() public view returns (address[] memory,address[] memory, uint[] memory) {\n    return (_lotmanuwarehousem,_lotwarehousem,_lotidwarehousem);\n  }\n\n  function addLabManufacturer(address lab,address labmanu,string memory labform) public {\n\n    _lab.push(lab);\n    labmanus[labform]=true;\n    _labmanu.push(labmanu);\n    _labform.push(labform);\n    _labfeeds.push([\"Nice Job\"]);\n  }\n\n  function viewLabManufacturers() public view returns(address[] memory,address[] memory,string[] memory) {\n    return (_lab,_labmanu,_labform);\n  }\n\n  function addLabFeedback(uint labform,string memory feed) public {  \n    _labfeeds[labform].push(feed);          \n  }\n\n  function viewLabFeedback() public view returns(string[][] memory) {\n    return (_labfeeds);\n  }\n}\n",
  "sourcePath": "C:\\Users\\Madhu\\Desktop\\drug-traceability-blockchain\\contracts\\drug.sol",
  "compiler": {
    "name": "solc",
    "version": "0.8.12+commit.f00d7308.Emscripten.clang"
  },
  "schemaVersion": "3.4.7",
  "updatedAt": "2022-05-20T11:09:20.410Z",
  "networkType": "ethereum",
  "devdoc": {
    "kind": "dev",
    "methods": {},
    "version": 1
  },
  "userdoc": {
    "kind": "user",
    "methods": {},
    "version": 1
  }
}