{
  "contractName": "register",
  "abi": [
    {
      "inputs": [],
      "stateMutability": "nonpayable",
      "type": "constructor"
    },
    {
      "inputs": [
        {
          "internalType": "address",
          "name": "user",
          "type": "address"
        },
        {
          "internalType": "uint256",
          "name": "password",
          "type": "uint256"
        },
        {
          "internalType": "string",
          "name": "name",
          "type": "string"
        },
        {
          "internalType": "uint256",
          "name": "role",
          "type": "uint256"
        }
      ],
      "name": "registerUser",
      "outputs": [],
      "stateMutability": "nonpayable",
      "type": "function"
    },
    {
      "inputs": [
        {
          "internalType": "address",
          "name": "user",
          "type": "address"
        },
        {
          "internalType": "uint256",
          "name": "password",
          "type": "uint256"
        }
      ],
      "name": "loginUser",
      "outputs": [
        {
          "internalType": "bool",
          "name": "",
          "type": "bool"
        }
      ],
      "stateMutability": "view",
      "type": "function",
      "constant": true
    },
    {
      "inputs": [],
      "name": "viewUsers",
      "outputs": [
        {
          "internalType": "address[]",
          "name": "",
          "type": "address[]"
        },
        {
          "internalType": "uint256[]",
          "name": "",
          "type": "uint256[]"
        },
        {
          "internalType": "uint256[]",
          "name": "",
          "type": "uint256[]"
        },
        {
          "internalType": "string[]",
          "name": "",
          "type": "string[]"
        }
      ],
      "stateMutability": "view",
      "type": "function",
      "constant": true
    }
  ],
  "bytecode": "0x608060405234801561001057600080fd5b50610ce4806100206000396000f3fe608060405234801561001057600080fd5b50600436106100415760003560e01c806314ebdb7914610046578063c21c32c314610067578063eb72346b14610083575b600080fd5b61004e6100b3565b60405161005e94939291906108ab565b60405180910390f35b610081600480360381019061007c9190610aad565b6102ce565b005b61009d60048036038101906100989190610b30565b61041c565b6040516100aa9190610b8b565b60405180910390f35b60608060608060026003600160008380548060200260200160405190810160405280929190818152602001828054801561014257602002820191906000526020600020905b8160009054906101000a900473ffffffffffffffffffffffffffffffffffffffff1673ffffffffffffffffffffffffffffffffffffffff16815260200190600101908083116100f8575b505050505093508280548060200260200160405190810160405280929190818152602001828054801561019457602002820191906000526020600020905b815481526020019060010190808311610180575b50505050509250818054806020026020016040519081016040528092919081815260200182805480156101e657602002820191906000526020600020905b8154815260200190600101908083116101d2575b5050505050915080805480602002602001604051908101604052809291908181526020016000905b828210156102ba57838290600052602060002001805461022d90610bd5565b80601f016020809104026020016040519081016040528092919081815260200182805461025990610bd5565b80156102a65780601f1061027b576101008083540402835291602001916102a6565b820191906000526020600020905b81548152906001019060200180831161028957829003601f168201915b50505050508152602001906001019061020e565b505050509050935093509350935090919293565b600460008573ffffffffffffffffffffffffffffffffffffffff1673ffffffffffffffffffffffffffffffffffffffff16815260200190815260200160002060009054906101000a900460ff161561032557600080fd5b6002849080600181540180825580915050600190039060005260206000200160009091909190916101000a81548173ffffffffffffffffffffffffffffffffffffffff021916908373ffffffffffffffffffffffffffffffffffffffff16021790555060038390806001815401808255809150506001900390600052602060002001600090919091909150556000829080600181540180825580915050600190039060005260206000200160009091909190915090805190602001906103ec9291906104f5565b50600181908060018154018082558091505060019003906000526020600020016000909190919091505550505050565b600080600090505b6002805490508110156104e9576002818154811061044557610444610c07565b5b9060005260206000200160009054906101000a900473ffffffffffffffffffffffffffffffffffffffff1673ffffffffffffffffffffffffffffffffffffffff168473ffffffffffffffffffffffffffffffffffffffff161480156104c7575082600382815481106104ba576104b9610c07565b5b9060005260206000200154145b156104d65760019150506104ef565b80806104e190610c65565b915050610424565b60009150505b92915050565b82805461050190610bd5565b90600052602060002090601f016020900481019282610523576000855561056a565b82601f1061053c57805160ff191683800117855561056a565b8280016001018555821561056a579182015b8281111561056957825182559160200191906001019061054e565b5b509050610577919061057b565b5090565b5b8082111561059457600081600090555060010161057c565b5090565b600081519050919050565b600082825260208201905092915050565b6000819050602082019050919050565b600073ffffffffffffffffffffffffffffffffffffffff82169050919050565b60006105ef826105c4565b9050919050565b6105ff816105e4565b82525050565b600061061183836105f6565b60208301905092915050565b6000602082019050919050565b600061063582610598565b61063f81856105a3565b935061064a836105b4565b8060005b8381101561067b5781516106628882610605565b975061066d8361061d565b92505060018101905061064e565b5085935050505092915050565b600081519050919050565b600082825260208201905092915050565b6000819050602082019050919050565b6000819050919050565b6106c7816106b4565b82525050565b60006106d983836106be565b60208301905092915050565b6000602082019050919050565b60006106fd82610688565b6107078185610693565b9350610712836106a4565b8060005b8381101561074357815161072a88826106cd565b9750610735836106e5565b925050600181019050610716565b5085935050505092915050565b600081519050919050565b600082825260208201905092915050565b6000819050602082019050919050565b600081519050919050565b600082825260208201905092915050565b60005b838110156107b657808201518184015260208101905061079b565b838111156107c5576000848401525b50505050565b6000601f19601f8301169050919050565b60006107e78261077c565b6107f18185610787565b9350610801818560208601610798565b61080a816107cb565b840191505092915050565b600061082183836107dc565b905092915050565b6000602082019050919050565b600061084182610750565b61084b818561075b565b93508360208202850161085d8561076c565b8060005b85811015610899578484038952815161087a8582610815565b945061088583610829565b925060208a01995050600181019050610861565b50829750879550505050505092915050565b600060808201905081810360008301526108c5818761062a565b905081810360208301526108d981866106f2565b905081810360408301526108ed81856106f2565b905081810360608301526109018184610836565b905095945050505050565b6000604051905090565b600080fd5b600080fd5b610929816105e4565b811461093457600080fd5b50565b60008135905061094681610920565b92915050565b610955816106b4565b811461096057600080fd5b50565b6000813590506109728161094c565b92915050565b600080fd5b600080fd5b7f4e487b7100000000000000000000000000000000000000000000000000000000600052604160045260246000fd5b6109ba826107cb565b810181811067ffffffffffffffff821117156109d9576109d8610982565b5b80604052505050565b60006109ec61090c565b90506109f882826109b1565b919050565b600067ffffffffffffffff821115610a1857610a17610982565b5b610a21826107cb565b9050602081019050919050565b82818337600083830152505050565b6000610a50610a4b846109fd565b6109e2565b905082815260208101848484011115610a6c57610a6b61097d565b5b610a77848285610a2e565b509392505050565b600082601f830112610a9457610a93610978565b5b8135610aa4848260208601610a3d565b91505092915050565b60008060008060808587031215610ac757610ac6610916565b5b6000610ad587828801610937565b9450506020610ae687828801610963565b935050604085013567ffffffffffffffff811115610b0757610b0661091b565b5b610b1387828801610a7f565b9250506060610b2487828801610963565b91505092959194509250565b60008060408385031215610b4757610b46610916565b5b6000610b5585828601610937565b9250506020610b6685828601610963565b9150509250929050565b60008115159050919050565b610b8581610b70565b82525050565b6000602082019050610ba06000830184610b7c565b92915050565b7f4e487b7100000000000000000000000000000000000000000000000000000000600052602260045260246000fd5b60006002820490506001821680610bed57607f821691505b60208210811415610c0157610c00610ba6565b5b50919050565b7f4e487b7100000000000000000000000000000000000000000000000000000000600052603260045260246000fd5b7f4e487b7100000000000000000000000000000000000000000000000000000000600052601160045260246000fd5b6000610c70826106b4565b91507fffffffffffffffffffffffffffffffffffffffffffffffffffffffffffffffff821415610ca357610ca2610c36565b5b60018201905091905056fea264697066735822122006c0a7b862fc385e9466c6aa12b0b30b305d5eb885c32c32266d043b6bd35c4a64736f6c634300080c0033",
  "immutableReferences": {},
  "source": "// SPDX-License-Identifier: MIT\npragma solidity >=0.4.22 <0.9.0;\n\ncontract register {\n  string[] _names;\n  uint[] _roles;\n  address[] _users;\n  uint[] _passwords;\n\n  mapping(address=>bool) users;\n\n  constructor()  {\n  }\n\n  function registerUser(address user,uint password,string memory name,uint role) public {\n\n    require(!users[user]);\n    _users.push(user);\n    _passwords.push(password);\n    _names.push(name);\n    _roles.push(role);\n  }\n\n  function loginUser(address user,uint password) public view returns (bool) {\n    uint i;\n\n    for(i=0;i<_users.length;i++) {\n      if(user==_users[i] && _passwords[i]==password) {\n        return true;\n      }\n    }\n    return false;\n  }\n\n  function viewUsers() public view returns(address[] memory,uint[] memory,uint[] memory,string[] memory) {\n    return (_users,_passwords,_roles,_names);\n  }\n}\n",
  "sourcePath": "C:\\Users\\Madhu\\Desktop\\drug-traceability-blockchain\\contracts\\register.sol",
  "compiler": {
    "name": "solc",
    "version": "0.8.12+commit.f00d7308.Emscripten.clang"
  },
  "schemaVersion": "3.4.7",
  "updatedAt": "2022-05-20T13:57:37.758Z",
  "networkType": "ethereum",
  "devdoc": {
    "kind": "dev",
    "methods": {},
    "version": 1
  },
  "userdoc": {
    "kind": "user",
    "methods": {},
    "version": 1
  }
}