{
  "contractName": "register",
  "abi": [
    {
      "inputs": [],
      "stateMutability": "nonpayable",
      "type": "constructor"
    },
    {
      "inputs": [
        {
          "internalType": "address",
          "name": "user",
          "type": "address"
        },
        {
          "internalType": "uint256",
          "name": "password",
          "type": "uint256"
        }
      ],
      "name": "registerUser",
      "outputs": [],
      "stateMutability": "nonpayable",
      "type": "function"
    },
    {
      "inputs": [
        {
          "internalType": "address",
          "name": "user",
          "type": "address"
        },
        {
          "internalType": "uint256",
          "name": "password",
          "type": "uint256"
        }
      ],
      "name": "loginUser",
      "outputs": [
        {
          "internalType": "bool",
          "name": "",
          "type": "bool"
        }
      ],
      "stateMutability": "view",
      "type": "function"
    },
    {
      "inputs": [],
      "name": "viewUsers",
      "outputs": [
        {
          "internalType": "address[]",
          "name": "",
          "type": "address[]"
        },
        {
          "internalType": "uint256[]",
          "name": "",
          "type": "uint256[]"
        }
      ],
      "stateMutability": "view",
      "type": "function"
    }
  ],
  "bytecode": "0x608060405234801561001057600080fd5b506106f9806100206000396000f3fe608060405234801561001057600080fd5b50600436106100415760003560e01c806314ebdb7914610046578063eb72346b14610065578063fa0b5e5514610095575b600080fd5b61004e6100b1565b60405161005c929190610512565b60405180910390f35b61007f600480360381019061007a91906105a6565b61019a565b60405161008c9190610601565b60405180910390f35b6100af60048036038101906100aa91906105a6565b610273565b005b606080600060018180548060200260200160405190810160405280929190818152602001828054801561013957602002820191906000526020600020905b8160009054906101000a900473ffffffffffffffffffffffffffffffffffffffff1673ffffffffffffffffffffffffffffffffffffffff16815260200190600101908083116100ef575b505050505091508080548060200260200160405190810160405280929190818152602001828054801561018b57602002820191906000526020600020905b815481526020019060010190808311610177575b50505050509050915091509091565b600080600090505b60008054905081101561026757600081815481106101c3576101c261061c565b5b9060005260206000200160009054906101000a900473ffffffffffffffffffffffffffffffffffffffff1673ffffffffffffffffffffffffffffffffffffffff168473ffffffffffffffffffffffffffffffffffffffff16148015610245575082600182815481106102385761023761061c565b5b9060005260206000200154145b1561025457600191505061026d565b808061025f9061067a565b9150506101a2565b60009150505b92915050565b600260008373ffffffffffffffffffffffffffffffffffffffff1673ffffffffffffffffffffffffffffffffffffffff16815260200190815260200160002060009054906101000a900460ff16156102ca57600080fd5b6000829080600181540180825580915050600190039060005260206000200160009091909190916101000a81548173ffffffffffffffffffffffffffffffffffffffff021916908373ffffffffffffffffffffffffffffffffffffffff16021790555060018190806001815401808255809150506001900390600052602060002001600090919091909150555050565b600081519050919050565b600082825260208201905092915050565b6000819050602082019050919050565b600073ffffffffffffffffffffffffffffffffffffffff82169050919050565b60006103b182610386565b9050919050565b6103c1816103a6565b82525050565b60006103d383836103b8565b60208301905092915050565b6000602082019050919050565b60006103f78261035a565b6104018185610365565b935061040c83610376565b8060005b8381101561043d57815161042488826103c7565b975061042f836103df565b925050600181019050610410565b5085935050505092915050565b600081519050919050565b600082825260208201905092915050565b6000819050602082019050919050565b6000819050919050565b61048981610476565b82525050565b600061049b8383610480565b60208301905092915050565b6000602082019050919050565b60006104bf8261044a565b6104c98185610455565b93506104d483610466565b8060005b838110156105055781516104ec888261048f565b97506104f7836104a7565b9250506001810190506104d8565b5085935050505092915050565b6000604082019050818103600083015261052c81856103ec565b9050818103602083015261054081846104b4565b90509392505050565b600080fd5b610557816103a6565b811461056257600080fd5b50565b6000813590506105748161054e565b92915050565b61058381610476565b811461058e57600080fd5b50565b6000813590506105a08161057a565b92915050565b600080604083850312156105bd576105bc610549565b5b60006105cb85828601610565565b92505060206105dc85828601610591565b9150509250929050565b60008115159050919050565b6105fb816105e6565b82525050565b600060208201905061061660008301846105f2565b92915050565b7f4e487b7100000000000000000000000000000000000000000000000000000000600052603260045260246000fd5b7f4e487b7100000000000000000000000000000000000000000000000000000000600052601160045260246000fd5b600061068582610476565b91507fffffffffffffffffffffffffffffffffffffffffffffffffffffffffffffffff8214156106b8576106b761064b565b5b60018201905091905056fea264697066735822122009b4a1eb76283ff604f5a4ec2d1f47311cd225823c81ea1520e5a4c4e83e811464736f6c634300080c0033",
  "immutableReferences": {},
  "source": "// SPDX-License-Identifier: MIT\npragma solidity >=0.4.22 <0.9.0;\n\ncontract register {\n\n  address[] _users;\n  uint[] _passwords;\n\n  mapping(address=>bool) users;\n\n  constructor()  {\n  }\n\n  function registerUser(address user,uint password) public {\n\n    require(!users[user]);\n    _users.push(user);\n    _passwords.push(password);\n  }\n\n  function loginUser(address user,uint password) public view returns (bool) {\n    uint i;\n\n    for(i=0;i<_users.length;i++) {\n      if(user==_users[i] && _passwords[i]==password) {\n        return true;\n      }\n    }\n    return false;\n  }\n\n  function viewUsers() public view returns(address[] memory,uint[] memory) {\n    return (_users,_passwords);\n  }\n}\n",
  "sourcePath": "C:\\Users\\Madhu\\Desktop\\drug-traceability-blockchain\\contracts\\register.sol",
  "compiler": {
    "name": "solc",
    "version": "0.8.12+commit.f00d7308.Emscripten.clang"
  },
  "schemaVersion": "3.4.7",
  "updatedAt": "2022-05-18T15:03:22.900Z",
  "devdoc": {
    "kind": "dev",
    "methods": {},
    "version": 1
  },
  "userdoc": {
    "kind": "user",
    "methods": {},
    "version": 1
  }
}